:020000040000FA
:100000000C945C000C941A010C94F3000C9479008D
:100010000C9479000C9479000C9479000C9479007C
:100020000C9479000C9479000C9479000C9479006C
:100030000C9479000C9479000C9479000C9479005C
:100040000C94A9000C9479000C9479000C9479001C
:100050000C9479000C9479000C9479000C9479003C
:100060000C9479000C947900000000002400270013
:100070002A0000000000250028002B0004040404CE
:100080000404040402020202020203030303030342
:10009000010204081020408001020408102001021F
:1000A00004081020000000080002010000030407FB
:1000B000000000000000000011241FBECFEFD8E0B8
:1000C000DEBFCDBF11E0A0E0B1E0E8E9F4E002C09E
:1000D00005900D92A430B107D9F721E0A4E0B1E07A
:1000E00001C01D92AE30B207E1F70E9441010C94AD
:1000F0004A020C9400003FB7F89480910A01909155
:100100000B01A0910C01B0910D0126B5A89B05C073
:100110002F3F19F00196A11DB11D3FBFBA2FA92F86
:10012000982F8827BC01CD01620F711D811D911D83
:1001300042E0660F771F881F991F4A95D1F70895EF
:100140009091040181E0911180E080930401089571
:1001500008951F920F920FB60F9211242F933F9381
:100160008F939F93AF93BF93809106019091070166
:10017000A0910801B09109013091050123E0230FFE
:100180002D3758F50196A11DB11D209305018093CF
:10019000060190930701A0930801B0930901809193
:1001A0000A0190910B01A0910C01B0910D010196F3
:1001B000A11DB11D80930A0190930B01A0930C0126
:1001C000B0930D01BF91AF919F918F913F912F916E
:1001D0000F900FBE0F901F90189526E8230F0296E0
:1001E000A11DB11DD2CF1F920F920FB60F921124F5
:1001F0002F933F934F935F936F937F938F939F932F
:10020000AF93BF93EF93FF93E0910201F09103014D
:100210000995FF91EF91BF91AF919F918F917F9140
:100220006F915F914F913F912F910F900FBE0F9063
:100230001F9018951F920F920FB60F9211242F93B3
:100240003F934F935F936F937F938F939F93AF935E
:10025000BF93EF93FF93E0910001F09101010995A5
:10026000FF91EF91BF91AF919F918F917F916F918E
:100270005F914F913F912F910F900FBE0F901F9064
:100280001895789484B5826084BD84B5816084BDFE
:1002900085B5826085BD85B5816085BD80916E0024
:1002A000816080936E001092810080918100826055
:1002B0008093810080918100816080938100809192
:1002C00080008160809380008091B1008460809381
:1002D000B1008091B00081608093B00080917A007D
:1002E000846080937A0080917A00826080937A00A3
:1002F00080917A00816080937A0080917A00806892
:1003000080937A001092C1000E947B004B015C0137
:100310006CE6C62E67E0D62EE12CF12C0E947B0005
:10032000681979098A099B09683E7340810591051E
:10033000A8F321E0C21AD108E108F10888EE880E7E
:1003400083E0981EA11CB11CC114D104E104F10486
:1003500029F7C2E9D0E0FE0124910EE710E0F80190
:100360008491882399F090E0880F991FFC01E85947
:10037000FF4FA591B491FC01EE58FF4F85919491E8
:100380008FB7F8949C91292B2C938FBFE3E9F0E071
:100390002491EFE7F0E084918823C9F090E0880F82
:1003A000991FFC01E859FF4FA591B491FC01EE584B
:1003B000FF4F459154919FB7F8943C91822F8095BF
:1003C00083238C93DA01EC912E2B2C939FBF80EA30
:1003D00090E0909303018093020180916900837FF4
:1003E000846080936900E99A26EAE22E20E0F22EEA
:1003F00030E0C32E30E0D32E20910401F701949118
:10040000FE018491F80134913323D1F0992339F01E
:10041000933031F1D8F4913049F1923059F1E32F12
:10042000F0E0EE0FFF1FEE58FF4FA591B4919FB77C
:10043000F89421112CC02C91809582238C939FBF1E
:10044000C114D104C9F20E940000D6CF9730A9F0A0
:100450009830C9F0943019F7909180009F7D03C0C7
:10046000909180009F7790938000D9CF94B59F772B
:1004700094BDD5CF94B59F7DFBCF9091B0009F7771
:100480009093B000CCCF9091B0009F7DF9CF2C918C
:0C049000822BD4CFF894FFCFA800A80066
:107E0000112484B714BE81FFF0D085E080938100F7
:107E100082E08093C00088E18093C10086E0809377
:107E2000C20080E18093C4008EE0C9D0259A86E02C
:107E300020E33CEF91E0309385002093840096BBD3
:107E4000B09BFECF1D9AA8958150A9F7CC24DD24C4
:107E500088248394B5E0AB2EA1E19A2EF3E0BF2EE7
:107E6000A2D0813461F49FD0082FAFD0023811F036
:107E7000013811F484E001C083E08DD089C08234E0
:107E800011F484E103C0853419F485E0A6D080C0E4
:107E9000853579F488D0E82EFF2485D0082F10E0AE
:107EA000102F00270E291F29000F111F8ED06801E7
:107EB0006FC0863521F484E090D080E0DECF843638
:107EC00009F040C070D06FD0082F6DD080E0C81688
:107ED00080E7D80618F4F601B7BEE895C0E0D1E017
:107EE00062D089930C17E1F7F0E0CF16F0E7DF06D8
:107EF00018F0F601B7BEE89568D007B600FCFDCFD4
:107F0000A601A0E0B1E02C9130E011968C91119780
:107F100090E0982F8827822B932B1296FA010C0160
:107F200087BEE89511244E5F5F4FF1E0A038BF0790
:107F300051F7F601A7BEE89507B600FCFDCF97BE46
:107F4000E89526C08437B1F42ED02DD0F82E2BD052
:107F50003CD0F601EF2C8F010F5F1F4F84911BD097
:107F6000EA94F801C1F70894C11CD11CFA94CF0C13
:107F7000D11C0EC0853739F428D08EE10CD085E9AC
:107F80000AD08FE07ACF813511F488E018D01DD067
:107F900080E101D065CF982F8091C00085FFFCCF94
:107FA0009093C60008958091C00087FFFCCF809118
:107FB000C00084FD01C0A8958091C6000895E0E648
:107FC000F0E098E1908380830895EDDF803219F02E
:107FD00088E0F5DFFFCF84E1DECF1F93182FE3DFCA
:107FE0001150E9F7F2DF1F91089580E0E8DFEE27F6
:047FF000FF270994CA
:027FFE00040479
:00000001FF
