:020000041000EA
:1000000000B5324B212058609868022188439860DF
:10001000D860186158612E4B002199600221596106
:100020000121F02299502B49196001219960352056
:1000300000F044F80222904214D00621196600F024
:1000400034F8196E01211966002018661A6600F04E
:100050002CF8196E196E196E052000F02FF8012189
:100060000842F9D1002199601B49196000215960AB
:100070001A491B48016001219960EB211966A021F2
:10008000196600F012F800219960164914480160C1
:100090000121996001BC002800D000471248134993
:1000A000086003C880F30888084703B5996A0420EC
:1000B0000142FBD001200142F8D103BD02B5186610
:1000C0001866FFF7F2FF186E186E02BD00000240BE
:1000D000000000180000070000035F00212200005C
:1000E000F4000018222000A00001001008ED00E03C
:1000F00000000000000000000000000074B24E7A12
:1001000000200420E3010010C3010010C50100100D
:10011000C1010010C1010010C1010010C101001097
:10012000C1010010C1010010C1010010C701001081
:10013000C1010010C1010010C9010010CB01001065
:10014000CD010010CD010010CD010010CD01001037
:10015000CD010010CD010010CD010010CD01001027
:10016000CD010010CD010010CD010010CD01001017
:10017000CD010010CD010010CD010010CD01001007
:10018000CD010010CD010010CD010010CD010010F7
:10019000CD010010CD010010CD010010CD010010E7
:1001A000CD010010CD010010CD010010CD010010D7
:1001B000CD010010CD010010CD010010CD010010C7
:1001C00000BE00BE00BE00BE00BE00BEEFF3058054
:1001D000103800BE00202249086006C881F3088854
:1001E000104720480068002835D10DA40ECC002906
:1001F00002D000F012F8F9E71B491C4A002000E089
:1002000001C19142FCD11A4988471A4988471A49C5
:10021000884700BEFDE701C901C29A42FBD370477F
:1002200090020010C0000020482100201823001078
:10023000502100201C240020E42500100000042090
:1002400000000420E4250010001004200010042009
:10025000000000007047094800F012F80047000055
:1002600008ED00E0000000D01C24002068280020D9
:10027000451E00205D010020D502002057560000D9
:1002800001B40248844601BC604700BFCD1B00207A
:10029000F8B5C0460448054B10B5834203D0044B63
:1002A000002B00D0984710BD1C2400201C240020E7
:1002B0000000000006480749091A8B10C90FC91829
:1002C00010B5491003D0044B002B00D0984710BD47
:1002D0001C2400201C2400200000000010B5074C46
:1002E0002378002B09D1FFF7D5FF054B002B02D057
:1002F000044800E000BF0123237010BD1C2400202F
:100300000000000048210020054B10B5002B03D051
:100310000449054800E000BFFFF7CCFF10BDC04610
:10032000000000002024002048210020B0B582B049
:1003300000AF7860396000F017F8084B084A9A60FF
:10034000074B1D68074B1B681C002B009D46A047F0
:100350006B461B681800BD4602B0B0BD00ED00E062
:100360000030001004300010494B70B51B6888B095
:100370001868484B1B681A6890423BD08021121ABB
:10038000490100F001F9002834D0434C07A92000AE
:1003900000F04AF900282DD0082220003F4901F042
:1003A0007BFF002826D1012301213D4E5B42255CC5
:1003B0006B4008251A005B080A4000D07340013DDD
:1003C000002DF7D1A322013092009042EFD1DB4300
:1003D00022589A420ED1A368002B0BD02E4B9B685B
:1003E000AB4209D8079800F0C5F800216422080044
:1003F00001F0DAFD08B070BDE368012B11D12000D7
:10040000103000F03BF90028F4D0206D00F0B0F976
:100410000028EFD0666DA36D0193002E04D100F08B
:10042000BAF901355034D9E7802302965B019E4228
:1004300000D90293029800F075F903900028D9D0F2
:1004400080220199520101F027FF002817D0EFF315
:10045000108372B6F0221206944680210593019B08
:10046000490163441800049301F078FF8022039946
:100470000498520101F0AEFF059B83F3108880229F
:1004800052019446029BF61A019B6344C4E7C0469E
:10049000B4230020B023002004FA03207822002097
:1004A0002083B8EDFEE7FEE700207047094A10B54B
:1004B0000B001168EFF3108472B6074A4B431068C3
:1004C000C018F0231B06C01801F048FF84F3108801
:1004D000002010BD382400205825002070B50800E9
:1004E00015001900EFF3108472B6084A084B126821
:1004F000504345191868F02340191B06049AC01888
:1005000001F068FF84F31088002070BD38240020BB
:100510005825002070B50D00074918000C68074BDE
:100520006C431968A4180919049A01F0ADFE044B34
:1005300000201D6070BDC0463824002058250020D2
:1005400090240020802370B5074D04002A00056028
:1005500006495B01064801F02DF823682D185A1C46
:1005600065602260187870BD04E703203C240020F9
:100570009424002010B5034B01001800FFF796FFEC
:1005800010BDC0460C250020F8B51C4B1C4F186050
:100590001C4B0D001960160000217822380001F074
:1005A0006DFE194C4C220021200001F067FE174B14
:1005B000E5616360164BA360164BE360164B236145
:1005C00080235B006361A361002D04D0290030000B
:1005D00001F0A0FD050010236362F033A362E36223
:1005E0000E4B380023630E4B210063630D4B2562D5
:1005F000A36300F041FEC043C00FF8BD58250020A2
:1006000094240020382400200C25002045030020DD
:100610000D030020DD020020D902002004F9032090
:1006200004F8032004F70320F0B5104B104E99B0E6
:1006300005000C000093300001230E4A03A900F0CE
:100640000FFF002802DA002019B0F0BDA427BF0078
:100650003B002A00300003A900F0ACFFB842F2D101
:10066000054B01201B682360EEE7C046C423002031
:10067000942400208122002090240020F0B500273F
:10068000214B87B01F70214E214D0393214B020057
:10069000009331000123280000F0E2FEB8422CDB79
:1006A00002233100280005AA00F084FF022824D18B
:1006B0003100280001F080F802AB1B7B1F2B03D117
:1006C00002AB5B7B8B2B02D0012007B0F0BD01F0A9
:1006D000A7F98022104C114B20001149120227600B
:1006E0006760A36001F09DF9200001F016FB00286F
:1006F00005D03100280001F05FF80020E5E7012374
:10070000039A1370E0E7C046642800203C240020D0
:1007100094240020B82300200052032075030020F9
:10072000046703200D4B70B51B7805000C4C002BA3
:1007300009D12B0022000B490B4800F03BFF8542FA
:100740000AD1200070BD09482D1944618461C5613A
:1007500001F076F90128F4D90020F3E7642800209D
:10076000045703203C24002094240020005203203E
:1007700070B5802604007601002C01D1012070BDE7
:100780002500B44200D935002800FFF7CBFF002830
:10079000F5D0641BF0E7704730B50C244443204D7E
:1007A000641965689D4200D26360C0250438AD01BC
:1007B000254301281AD801292DD103202860A068DB
:1007C0000842FCD0206852014240E02002408020D4
:1007D000032540012043026022684A402A4002600B
:1007E00001228A40A1680A42FCD00BE08021090165
:1007F0002960216852014A40E0210A4080214901D4
:1008000021430A60802280219201224309010120B4
:100810001160636030BD802000012860D2E7C046CF
:100820000080004073B50C2001F07AFB0023254DB9
:10083000AB6701F0DBFB0122234B1A606B6C012BD1
:10084000FCD10322214B1A60AC6B012CFCD1022697
:1008500005252100009606231D4A1E4801F012FBC3
:100860002B00210000951C4A1C4801F00BFB802343
:10087000310000225B000420FFF78EFF802321005F
:10088000280000225B00FFF787FF00228023110071
:100890005B000720FFF780FF0022802311005B0030
:1008A0000820FFF779FF0022802311009B01092017
:1008B000FFF772FF0022802311005B000620FFF784
:1008C0006BFF73BD008000403CB0004030B0004082
:1008D000002F685900800240008C864700C002400B
:1008E00010B50A68046803000020944208D05B68D1
:1008F00049688B4204D08C4202D0D01A431E9841E2
:1009000010BD020080058015013041424841801829
:100910008005800D043070470200836A2832002B66
:1009200003D018688B4201D1106070471A00030091
:10093000F5E7F0B58BB00992826E04930C00136A50
:100940000499109E08908B4204D9129BD269F31827
:10095000934220D9542040427BE02368049A129F9E
:100960009A4222D16168A5684D19B5421DD9B1429C
:1009700016D8AD1BBD4200D93D00E368711A591865
:100980002A00119801F080FC119B76195B191193D4
:10099000129B5B1B1293129B002BDED1180058E0B8
:1009A000129B8F1B9F4200D91F00089B30009D6E39
:1009B0006B691900039301F0ADFB6B68129A069303
:1009C000099B059193421FD800291DD1039B934297
:1009D0001AD81900380001F09DFB7B1A28000591F8
:1009E000039300933200119B0499069DA8470028A9
:1009F0002FD1039A119B944663441193059BB6181B
:100A0000129ADB1BD318C5E7049B2360059BF31ADE
:100A100007936360099B5F1E039BFF18BF191900B2
:100A2000380001F077FBEB697F1A9F4200D91F0065
:100A3000059BAA6A9B1BFF18974200D91700A76065
:100A400000972800E368079A0499069DA8470028A4
:100A500083D00BB0F0BDF0B5036886688DB0890512
:100A6000040006938F0DBE4200D93E000025136896
:100A700007935368089363680993AE4206D8A36846
:100A80000020BB4221D0BB4240411DE0721B0592B9
:100A9000082A01D908230593059B069902930AABFE
:100AA0000193089B08005B190093079BFFF741FF28
:100AB00000280AD1099B059A59190AA801F0ECFBF4
:100AC000002804D0C043C00F01300DB0F0BD059B1D
:100AD000ED18D2E7F0B597B016000D931368826E4B
:100AE0000700126A0C00934203D354235B42059320
:100AF0006BE071688A42F8D90022042510A910928F
:100B000011920191009201002A000295FFF711FF56
:100B1000031E059001D0543357D10295002511AB27
:100B2000019300957368042239003800FFF701FF34
:100B3000119B0590A84245D1109A9B1ADD17ED1A1A
:100B4000ED0FAB009A59226001225540AA0092593C
:100B50000A95626010AA9B58A3600023E3600233E9
:100B60000B93033B0593C44B12AA21CB21C2210056
:100B7000012004220831404200F028FE00230C939B
:100B80000893013B09930023059E0E900693099854
:100B9000FFF7B7FE069BBA6E1B1806930423029359
:100BA0000FAB0193069B3900009338002368D2698C
:100BB000FFF7BFFE051E0BD02B00543300D045E1DC
:100BC000002324E0059B5433BBD0059817B0F0BD3B
:100BD00004220E980FA900F0F9FD0F9B099A1BBA89
:100BE0005A400E9007920F9245D5099BE0221E0DA8
:100BF000A023D200E068DB0016409E4205D1BB6E08
:100C0000996901F087FA4D424D4101232B40A375AC
:100C1000E368002B00D151E1E023FD6BDB002A0DDE
:100C20001A4200D139E1380021004030FFF758FE68
:100C3000002800D031E1059B2D031B03AD0D9B0D5A
:100C4000AB4200D004E18023059A1B0613431D9A92
:100C5000002A07D0A18A1A03920D8A4200D90A00FD
:100C60001D990A800021A28A1B039B0D05919A42BF
:100C7000ABD902233AE70798FFF743FEBB6EDA6968
:100C8000069BC01890429BD8E0250799ED00090DFE
:100C9000A020294004252368C000099581423FD146
:100CA00014A901910699029549190091380039005B
:100CB000FFF73FFE051E00D07EE7149A0E9B9A4276
:100CC00000D07DE70F9B079A1B0DDB075A40079268
:100CD0000EA90422F86A00F079FDF8620F98FFF778
:100CE00010FE069BC018079BE0602361089BA3824F
:100CF000129BA361139BE3610C9BE37501235B4291
:100D00000E933300079A059609921E003FE70122D1
:100D10000E9814A900F05AFD099B0E900133099317
:100D20000F98FFF7EEFD099A2368904214D901212C
:100D3000BA6E029114A906980191099909180091B7
:100D400038003900D269FFF7F4FD051EDFD003003B
:100D500054337BD10023A375E020E0250F9AC00017
:100D6000110DED002368084029421FD1089B120392
:100D7000920D934201D8531C08930F991C9B0D9818
:100D80004B40184009900D982268184247D1069BA5
:100D90001492043315931F981E9B14AA9847051E9E
:100DA00039DA0300543351D1099B30E78025ED0037
:100DB000A84219D14BB208993048C91889B2089194
:100DC0002F49304001438A4203D180231B061E4332
:100DD000D3E7711CD1D012033103920D890D8A42E1
:100DE000CBD89B029E19C8E7C022D2009042C4D142
:100DF000012211400C910821BA6E029112A90191B1
:100E00000699380004310091D2693900FFF791FD4D
:100E1000051EB2D0D0E60F99002803D10E00330092
:100E2000059E6FE73300174A4B4013420BD0022850
:100E3000F5D132030B03920D9B0D9A42EFD380261E
:100E400036060E43EBE701267642E8E70595BCE659
:100E5000059A01321AD11D9B002B09D08021A28A4C
:100E6000C900131C8A4201D3074B1B881D9A1380AB
:100E700001235B42F6E6C046A022002000FC0F00E2
:100E80000000F04F00FCFF7F90220020AB4204D90D
:100E9000124A059B9446634405931D9A059B002ABC
:100EA00007D0A18A1A03920D8A4200D90A001D991F
:100EB0000A80059A002A00DB87E6D3E62368626889
:100EC00063600A9B22609B0010AA9B58A3600B9B47
:100ED000012B00D109E601230B9344E600FCFFFF40
:100EE000F8B5C7690D68083F0E000020BD4215D354
:100EF0003900280001F00EF9013801F005F902303F
:100F000080003900281A01F005F9040001F0FCF80E
:100F100080002D1A20006743ED1B3560F8BD0000EE
:100F2000F0B514000D004A6B85B0002B03D0012BE7
:100F30000BD114190ED4036FA3420BD32600944295
:100F40000FD11600300005B0F0BD022B05D0036FA5
:100F50009A42F6D916267642F4E7CB6AE418EAD527
:100F6000F8E7876E02A938000292FFF7B9FF03A9DC
:100F7000019038000394FFF7B3FF019B83420AD12D
:100F80006B6C039A934206D8A96C5B189A4202D202
:100F90006C63EA63D6E72B6B5A0307D5DA0202D4F7
:100FA000012252422A64024A13402B636C63C9E750
:100FB000FFFFFBFF10B50C00826AFF21E06801F023
:100FC0005DF901235B42236010BD0000F0B58DB0D8
:100FD0000793CB68C56B06930B6909920B931303B8
:100FE0009B0D0893E0232A0DDB000F0000240590E1
:100FF0001A4210D04030FFF773FC041E00D072E09C
:10100000089B002B07D0079B2D031B03AD0D9B0DE9
:101010009D4200D8354CE025ED000B9E3000FFF7D7
:1010200070FC069A031D93422ED8069B05991B1A45
:101030000693042302930BAB0193069B08000093D5
:1010400004223B68FFF775FC011E1FD10B9B1BBAE6
:1010500073405B005B080B93089B002B1CD0330D87
:1010600080221900D2002940914215D1079A111B04
:1010700008033203800D920D90420DD31C4A11409B
:101080001C4A0A43B24204D10221494208000DB071
:10109000F0BD5BB29B021C19079B099A1B1B734096
:1010A0001A42BAD1B505AB150133EDD0149BAD0D85
:1010B0009D4200D91D00139B069A0193129B05992E
:1010C00004339B180295009308002A003B68FFF741
:1010D00030FC011EDAD1149B5A1B139B581901F0E6
:1010E000CDF8A119D2E7002495E7C04600FCFFFF28
:1010F00000FC0F00000010401FB59C05A40D0294D9
:10110000069C019400240094FFF760FF04B010BD1A
:10111000F0B593B00A9313680E0006930A9B0890EB
:101120000B92002B02D04D4B0A9A1380089B4C4C1B
:101130001B6AB361089B5B6AF3614A4D06982900FC
:1011400001F0D7F8069B29001F18380001F0C0F8FD
:101150000590012806D13B782E2B0DD1059BFB185D
:101160000693EAE7059B022B06D11A0038003E4998
:1011700001F092F80028F1D0059BFB181D000693A2
:1011800001230793374B0C93374B0D9328000C9991
:1011900001F0AFF82D1828000C9901F099F809908A
:1011A000002815D002280DD1022228000D9901F047
:1011B00073F8002806D1079B013B0793002B04D14D
:1011C000AB1CCDE7079B01330793099BED18DDE7C7
:1011D0003B78002B3BD00B9B1F60230D022B39D19A
:1011E0001E4B2403A40D9C420CD032001F4BA402C2
:1011F00018322343009231001D4A0898FFF77CFF04
:10120000041E24DB2F21380001F054F843425841DA
:101210000A9B089A404218400FAB0F920393059A1D
:10122000144B119202930092F0233200019031008E
:101230000898DB0518321097FFF74CFC041E06DBFC
:10124000002800D079E7F37D002BDBD1023C2000A1
:1012500013B0F0BD14246442F9E7C046FF03000058
:1012600000FC2F0092220020942200200800002081
:1012700000FC0F7087080020F0B504000B6B08001D
:1012800099B0A166E360002B03D04B6B002B03D118
:10129000E3610C204042BEE0E3612100FFF78AFEDB
:1012A0002100A06E1031FFF785FEA36E9A6B002A15
:1012B00001D16266EDE76266DA6B002A4DD0E26624
:1012C0001A6C002A00D15D4A22675B6C002B00D1AA
:1012D0005B4B636701235B4223626362230000254B
:1012E00026003C3318000C222900A562E562303646
:1012F000059300F0C3FF0C222900300000F0BEFF70
:1013000020000C222900483000F0B8FF1C222900E0
:1013100010A800F0B3FF01231793169B013303D0ED
:10132000179B013300D081E0236A013345D0636A03
:10133000013342D0226BD30F9B182363059B07CE4A
:1013400007C3A36EE06A1D6A290000F0E3FE0020D7
:101350006165A065E06525665DE0FF22AFE707AB4C
:101360000393384B384A02930023089208220193D2
:10137000364B099200932000354B16AA10A901356F
:101380000794FFF7A7FB002845DB38D080058015C0
:10139000013034D0109B0AAF2362119B200063629E
:1013A0002B4A2C4B009710A9FFF7A6FE002832DB32
:1013B0000A9B9AB21B0C022B01D016206AE7002A66
:1013C000FBD1FB68002B03D0E26E9342F5D8E366B5
:1013D0003B69002B03D0226F9342EED823677B69D1
:1013E000002B03D0626F9342E7D86367A36EB9689E
:1013F0001A6A9142E1D17A68DB699A42DDD10AAF7B
:101400002000154B154A009710A9FFF775FE00281C
:1014100003DA831C81D019B0F0BD33001A6802CF03
:101420004A4004C3059A9A42F8D176E7A36E1B6A34
:101430005B08AB4200D992E754202BE7FFFFFF7F08
:10144000FE03000087080020972200200800F00F0C
:1014500000FCFF7F180010200C00F07F0000F07FE0
:10146000F0B50B630B00002787B0059208330C9A88
:1014700002930A654F63CF63CF640B1D0C0005AA6E
:1014800002990600FFF744FE0500B8422CDB012359
:10149000A371B36A15252360030DB4620393012B76
:1014A00054D1A2883D4B920213432200283200926D
:1014B00030003B4A0299FFF71FFE051E1FDB236D1C
:1014C0009A68974220D31B68E364002B3DD021002B
:1014D000B06E4031FFF76EFD324A2B0D934237D08C
:1014E0000025280007B0F0BD831C08D12E4BA28830
:1014F0009A4204D00123A371B36A2360B46221002D
:101500003000FFF709FAECE7226B03990A4201D198
:101510000137D4E70C21C02079435A68A3885218B8
:1015200091689B020B4311788000526809180905E5
:101530000B43009230001D4A0299FFF7DDFD0028A1
:10154000E6DA831CE4D00500D9E70C256D42D6E726
:101550008023216B5B030B4323630023022263641C
:10156000B36EAD059B6A5242AD0DA262E562226484
:10157000A364B5D0A2880E4992028B4200D90B0019
:101580001A4380239B051343E26C300000920299BA
:10159000034AFFF7B1FD051EA2DAB0E708000020FC
:1015A00000FC0F7001020000FF03000000FCFF7F41
:1015B000FE030000F0B597B00C000A924A6BC96AAE
:1015C000059000208A4200D3DEE08A1A08929A42EF
:1015D00000D90893089B0693069B002B01D108981D
:1015E000D2E0059A236B956E8022D202134203D07B
:1015F000E16BEA69914213D180214903626B0B428E
:1016000071D1A16AE36A13911492002B37D10122A0
:101610005242A263E3638022236BD202134323630B
:10162000059BE66B9B6EDB6909939F1B069B9F42A4
:1016300000D91F008022236B5203134200D1A5E082
:10164000230008331093A388594A9B021A4311922E
:10165000099AF3199A4200D2A7E00A9B07970C93C4
:10166000079B002B44D1636BDB196363E36BDB19CE
:10167000E3630A9BDB190A93069BDB1BABE72200A3
:10168000013B403215A9280009921593FFF728FC69
:1016900014A906002800FFF723FC0700139B0793FB
:1016A000B74202D3A363149BB4E7F01B00F020FD04
:1016B0000500300000F022FD1F235D1B854200D98C
:1016C00005000423029313AB0193AB0000930422A3
:1016D000079B09990598FFF72CF9002854D101239D
:1016E000AB40F61ADAE702235B42A363E26392E7B8
:1016F000E36C0F93236C02331AD1616CA56C4D1906
:10170000B54215D9B14213D8079BAD1B9D4200D9F4
:101710001D000F9B711A59182A000C9800F0B4FD97
:101720000C9B76195B190C93079B5B1B079397E740
:1017300002235B422364059B30009B6E0D935B6923
:1017400019000B9300F0E6FC731A0B9A0E93636476
:10175000099B11009D18013DAD19280000F0DAFC2D
:101760000D9B6D1A9B6A9D4200D91D000F9BA564BD
:1017700001930E9B0F4A00931099119B05980295B7
:10178000FFF724FC0028B3DA17B0F0BD21000A9B54
:10179000029701930096A36B099A05984031FFF7D1
:1017A000C8F8002800D15EE7EEE754204042EBE79E
:1017B0000000102000FCF7FF002310B51A00FFF70F
:1017C000AFFB002800DD002010BD000070B50F2524
:1017D0000A4C8A18914200D170BD0B780609584016
:1017E0002840800000591B09464073402B409B0055
:1017F0001B59300958400131ECE7C046A8220020AF
:10180000F0B50D0016000021202289B0040000F080
:1018100035FD2B00A81998420ED100231A00238011
:1018200069465A52E15A02335218202BF8D100224D
:10183000B24208D109B0F0BD1A7801335200A15A62
:101840000131A152E7E7A95C002908D06B466F4639
:1018500049005B5A581C10335B0078521A5301320E
:10186000E6E70368426810B5934203D25A1C02604F
:10187000187810BD8368841D002B07D0E27F002AF2
:1018800004D19847002801DBC0B2F2E70123002011
:10189000E377EEE7036910B55A1E04000261002BDE
:1018A00004D1FFF7DEFF0723E0602361E06843080F
:1018B000E3600123184010BDF7B500261500019024
:1018C000B14204D0012427008F40BC4201D3A819A3
:1018D000FEBD0198FFF7DEFF002800D03619640036
:1018E000F3E7F7B500250B000E002C002033019024
:1018F0008F1C00930198FFF7CDFF009B6D00281807
:101900009F420BD03D8802372B19451B04D5241864
:1019100010346400A05BFEBD1C00EBE703204042D6
:10192000F9E70000F0B5D7B0059202220291FF322C
:1019300005210500FFF7C0FF0122052101902800C5
:10194000FFF7BAFF0422039011002800FFF7B4FF4D
:1019500013220600002106A800F090FC0024B442E7
:101960001BD11322029806A9FFF74AFF039A00240D
:101970009446019B63440493049B9C4218D3019AB0
:10198000029806A9FFF73CFF019906AB0598039A58
:10199000C918FFF735FF00201AE0002203212800B4
:1019A000FFF78AFF1D4B06AA1B5D0134D054D6E712
:1019B00028000299FFF795FF002809DB112826D09F
:1019C000122828D010281DD1002C03D1032040421A
:1019D00057B0F0BDA0235B0006AAE3189B180221B4
:1019E0000322423BFF3B1F782800FFF765FF049B63
:1019F000261802009E42E9D806AB3900E01800F034
:101A00003DFC02E006AB661C18553400B4E7032227
:101A100011000027E8E70B220721FAE7E82200205F
:101A20007047002310B5841DE377012464420361ED
:101A3000C3628462C26381630364036310BD0000F8
:101A4000F8B50400A36A013375D12000A56AFFF739
:101A500021FF0022E06202212000FFF72DFFA0629B
:101A6000012871D1012D00D1B8E0210000230831F7
:101A7000A21DD38702318B87CB870231CB870231FE
:101A8000CB8740310B804B802300182152331980C3
:101A900080315980283999802100802318306431A1
:101AA0005B00FF300B8001339BB202318342F9D1DE
:101AB000200000239430590043520133902BFAD177
:101AC000D7218C204900400050521A200231FF30AB
:101AD00050520231013050521C200231FF3050521E
:101AE0000231013050521E200231FF30505202317B
:101AF0000130505220200231FF3050522200C532B6
:101B0000FF32BC39138001339BB202328B42F9D1D0
:101B1000A922002320219200A352A21851815380B0
:101B20009380D3801381B1229200A1185A008B5266
:101B30000133202BFAD1A36A002B12D0013B012BD9
:101B40004CD9032040420BE00228F4D1A923210004
:101B50009B002000E2184431FFF7E4FE0028EAD0A1
:101B6000F8BD266B002E18D12000FFF77AFE070083
:101B70002000FFF776FE05022000FFF772FEED1948
:101B800007002000FFF76DFE534B0002C0194340D1
:101B90009D42D6D1013525632661236B013B23632A
:101BA000002B00D18FE02000FFF75BFEA3695A1CD9
:101BB000A2611870A26B002A09D0236C591C216401
:101BC000D054226CE36B9A4201D100232364A269B2
:101BD000E3699A4200D235E70020C1E7236B002B6E
:101BE0003BD1210020004431FFF77BFEA31DDB7FAA
:101BF000002BA6D1FF2804DCA369C0B25A1CA26145
:101C0000D7E780235B0098425DD00238FF381C285C
:101C100097DC324B4200D25A314B195C2000FFF75F
:101C20004BFEA9239B002063E1182000FFF759FE1B
:101C30001D2800DD85E72B4B4200D25A2A4B195C48
:101C40002000FFF739FEA36B002B2DD0E26B9042F2
:101C50003FD8236C1B1A24D46363A16BA369626B06
:101C600000292AD0581CA0618A5C1A70A36B002B33
:101C70000BD0226C616B501C2064595C9954226C0F
:101C8000E36B9A4201D100232364636BE26B01335F
:101C90006363934201D100236363236B013B23639E
:101CA00095E7D2186263D8E7A36962699B1A9842E4
:101CB00000D946E740426063CFE79A5C1A70A36997
:101CC0000133A361E9E7E36A002B00D1BDE60120FF
:101CD00046E7052036E7C046FFFF000056230020F8
:101CE00092230020FC2200203823002070B505003C
:101CF0000C00002C00D170BD2800FFF7B2FD013CA4
:101D0000F7E770B50400FFF7ACFD05002000FFF712
:101D1000A8FD0002284380B270BD70B50400FFF733
:101D2000A0FD1F2802D00320404270BD2000FFF715
:101D300098FD8B28F7D12000FFF793FD0828F2D1FA
:101D40002000FFF78EFD05001F28ECD8062120009B
:101D5000FFF7CCFF6B0706D52000FFF7D2FF01008D
:101D60002000FFF7C3FF2B0704D52000FFF779FD04
:101D70000028FAD1EB0604D52000FFF772FD0028F9
:101D8000FAD10226354202D02000FFF7BAFF631DC8
:101D9000DE7701235B4200202362C6E7142310B5DF
:101DA0000100188804331B88984710BD162310B50E
:101DB0000100188802331B88984710BDF8B50E0043
:101DC000040000270125B74201D12800F8BD206892
:101DD000FFF7E4FF01C4431E98414042054001372C
:101DE000F1E70000054B064A1360064A1360536092
:101DF0009360D360136153619361704780808080EA
:101E000000E400E004E400E00021044B044ABFF3D6
:101E10005F8F02C39342FAD17047C046000100D0E1
:101E2000800100D0044A1078431CDBB2172B00D984
:101E3000102313707047C046D0230020024BC918EE
:101E4000890001607047C0464000003410B50400AE
:101E5000FFF7E8FF01002000FFF7F0FFFF232371E9
:101E6000BFF35F8F10BD10B50400FFF7DBFF01006B
:101E70002000FFF7E3FFFF23A380BFF35F8F10BDB8
:101E800070470000F8B50400204817001E000D0040
:101E900000F040F90100380000F03CF9069A3304E4
:101EA000120313432268002A0FDA3F2122680A40F6
:101EB000AA420AD1A2681205120D824205D1EE2172
:101EC000E268C9020A409A421BD0114A944219D0D2
:101ED000802252010F49104E0A6010490A60170013
:101EE000B1688F43FBD1C022211D92010A432121F9
:101EF0002560A060116021680029FCDAE3600823F6
:101F00001360F8BD80229201E4E7C046001BB700D1
:101F100000C0024000E0004000C0004000F000406F
:101F20008023024A9B000343D36270470080054030
:101F3000024B1A68024B5A607047C0465C2600206C
:101F40000080054003008020114AC00510B5114CE7
:101F5000106011480460E020104CC004002906D035
:101F60002060002B05D180231B06236010BD10606C
:101F7000F7E7FA20C00058438023094A5B049842DF
:101F800000D308481060FFF7D3FF8023DB05ECE7A0
:101F900000B00540FCFF01000820014000A0054002
:101FA0005C260020FFFFFF0070B5040010008022B7
:101FB0000A4BD2051A600A4B002C0CD00125094AA5
:101FC0002C43DA61084A62401A6259629C6200211D
:101FD000FFF7B8FF70BDDC61F9E7C04600B005400F
:101FE00000800540D3C007B02D3FF84FAA22064B12
:101FF00012011A602132FF32DA600449044A11608A
:102000005A68002AFCDA70470040024000B0FA002B
:1020100000600240234B244A70B51A60234E244BC3
:10202000244C33601900A2689143FBD1224D234B0D
:102030009D4224D3FEF7F6FB214B3360A368DB01FE
:102040008033FBD140221F4B1F489A675A671A679B
:10205000DA661E4B984215D31D4C1E4DC022A9684E
:10206000200000F011F9AC60FFF7CEFEFFF7BAFEDA
:10207000FFF706FF184C194B9C420FD370BD08CDDB
:102080009847D4E7040003680834002B03D0FFF717
:10209000EAFE2000DDE7FFF7D9FEFAE708CC984713
:1020A000E9E7C04600E00040BFCDFBFE00F0004085
:1020B000FE7F3C0000C000400824002018240020BF
:1020C000FFFFFF0100F00140002400200824002051
:1020D0000000002000ED00E0182400201C24002057
:1020E00001480421014B1847E0230020ED1B00208C
:1020F000014B5B6818470000E0230020014B9B6800
:1021000018470000E0230020014B1B68184700001F
:10211000E0230020114A936F9B0813D2106651668A
:10212000002905D0FFE7FFE7FFE7516F106F704709
:1021300004B5002801D00020C04300F0ABF8002116
:1021400004BDC046F0B5146E556E576F166FFFF79D
:10215000E5FF1466556657671667F0BD000000D0AE
:10216000132370B51C780F4D012C0ED100230E499E
:102170009A000133A950202BFAD10B4BAB640B48CA
:10218000FFF70CFE0A4B186070BD012CF5DD094805
:10219000FFF70CFE80220100280000F075F8022CE9
:1021A000EDD1EAE760260020E91F00204C33000053
:1021B000602700205344000007B5604601880A0AE2
:1021C0000230DF2AFAD1C9B2820804D302884088DB
:1021D0000004104300E00068014A5050039007BD1E
:1021E00060260020132310B510481C78FFF7DEFD91
:1021F0000100012C13D10E4C5422200000F044F8B1
:1022000015230C4A990001336250202BFAD1226227
:10221000E2610948FFF7C2FD084B186010BD012CB0
:10222000F7DD8022024800F02FF8F2E75346000065
:1022300064270020712000204C330000602700201C
:1022400007B5604601880A0A0230DF2AFAD1C9B20E
:10225000820804D3028840880004104300E000682C
:10226000014A5050039007BD642700200148042113
:10227000014B1847F0230020ED1B0020014B1B6889
:1022800018470000F0230020014B5B68184700004E
:10229000F02300207047C04630B500240139A24227
:1022A00001D1002005E0035D01340D5DAB42F6D0A5
:1022B000581B30BDC9B20378002B04D08B4200D12B
:1022C00070470130F7E74B42594149420840F7E770
:1022D000030030B51C78002C09D1181A30BDA54276
:1022E000FBD001321578002DF9D10133F2E70A0055
:1022F000F8E7030030B51C78002C07D00A0002E094
:10230000A54205D001321578002DF9D1181A30BD3B
:102310000133F0E7F8B5C046084A10B51378002B32
:102320000AD18023064807495B051C68C450043362
:102330008B42FAD10123137010BDC04665280020DE
:102340005C2500100001001010B5014B984710BD2E
:102350005D2500208023F0B5421807000C0085B0F1
:102360005B049A4201D9FEF79AF8142618253088A2
:102370002B88124998472B88039011493088984739
:102380002B8802900F49308898472B880E4901907E
:10239000308898470500FFF7BFFF039B9847029BD3
:1023A000984780222100D82338005202019CA04780
:1023B000A847FFF7C9FF05B0F0BDC0464946000079
:1023C0004558000052450000464300008023F0B508
:1023D000170085B08218040003915B049A4201D96A
:1023E000FEF75DF81426182530882B881049984789
:1023F0002B8802900F49308898472B8801900E490E
:10240000308898472B880D49009030889847050000
:10241000FFF782FF029B9847019B98473A002000F4
:102420000399009B9847A847FFF78EFF05B0F0BDC2
:102430004946000045580000525000004643000045
:102440005069636F204F5441006F7461636F6D6D0D
:10245000616E642E62696E00FF032F002E2E006CE9
:102460006974746C65667300FFFFFFFFFFFFFFFF79
:10247000000000006410B71DC8206E3BAC30D926A8
:102480009041DC76F4516B6B5861B24D3C71055054
:102490002083B8ED44930FF0E8A3D6D68CB361CB7C
:1024A000B0C2649BD4D2D38678E20AA01CF2BDBD30
:1024B00010111200080709060A050B040C030D028F
:1024C0000E010F00010002000300040005000700D8
:1024D00009000D00110019002100310041006100C8
:1024E0008100C10001018101010201030104010613
:1024F0000108010C011001180120013001400160A8
:1025000000000000010102020303040405050606A1
:102510000707080809090A0A0B0B0C0C0D0D03002C
:102520000400050006000700080009000A000B006F
:102530000D000F001100130017001B001F002300E7
:102540002B0033003B004300530063007300830003
:10255000A300C300E300020100000000000000002F
:10256000000001010101020202020303030304044B
:102570000404050505050000F42F0010F02F0010DD
:102580000050032000000000000000000051032064
:10259000000000000000000010000000000000002B
:1025A0000000000000000000503300004C33000029
:1025B00054330000523300004D5300004D430000DF
:1025C000533400004334000000000000000000000D
:1025D0009D200020111F0020911F002015200020A9
:0425E000390100209D
:1025E40000000000000000000000000000000000E7
:1025F40000000000000000000000000000000000D7
:1026040000000000000000000000000000000000C6
:1026140000000000000000000000000000000000B6
:102FE40000000000000000000000000000F01710C6
:0C2FF40000F01F1000F01F1000F017008C
:1030000000200420E3300010C3300010C530001051
:10301000C1300010C1300010C1300010C1300010AC
:10302000C1300010C1300010C1300010C730001096
:10303000C1300010C1300010C9300010CB3000107A
:10304000CD300010CD300010CD300010CD3000104C
:10305000CD300010CD300010CD300010CD3000103C
:10306000CD300010CD300010CD300010CD3000102C
:10307000CD300010CD300010CD300010CD3000101C
:10308000CD300010CD300010CD300010CD3000100C
:10309000CD300010CD300010CD300010CD300010FC
:1030A000CD300010CD300010CD300010CD300010EC
:1030B000CD300010CD300010CD300010CD300010DC
:1030C00000BE00BE00BE00BE00BE00BEEFF3058025
:1030D000103800BE00201F49086006C881F3088828
:1030E00010471D48006800282FD10DA40ECC0029E0
:1030F00002D000F012F8F9E71849194A002000E060
:1031000001C19142FCD1174988471749884717499F
:10311000884700BEFDE701C901C29A42FBD3704750
:10312000C8390410C0000020A4A90020ACE204109B
:103130000000042000000420ACE204100010042071
:103140000010042000000000704709482DF0E9FD40
:103150000047000008ED00E0000000D0A8A9002012
:1031600080470220812C031035EE0210812D0310C0
:1031700057560000F8B5C0460448054B10B58342C9
:1031800003D0044B002B00D0984710BDA4A9002009
:10319000A4A900200000000006480749091A8B1066
:1031A000C90FC91810B5491003D0044B002B00D02B
:1031B000984710BDA4A90020A4A900200000000089
:1031C00010B5074C2378002B09D1FFF7D5FF054B2D
:1031D000002B02D0044800E000BF0123237010BD83
:1031E000A0CA002000000000C0A90310054B10B5C4
:1031F000002B03D00449054800E000BFFFF7CCFFD7
:1032000010BDC04600000000A4CA0020C0A90310E1
:1032100000207047704700207047002070477047BB
:1032200010B5034B186803681B68984710BDC0466B
:103230003C0E002010B5034B186803685B68984784
:1032400010BDC0463C0E002010B5034B1868036843
:10325000DB68984710BDC0463C0E0020012800D016
:103260007047084B9942FBD1074B0849196000226F
:103270005A6007481860074B19605A60064A1A607E
:10328000EEE7C046FFFF0000B8D10020E031041097
:10329000A4B10310C4D10020BCB10310024B012221
:1032A0001A7042767047C04617470220002001E09E
:1032B00001300131904202D80B78002BF8D17047D1
:1032C00000234361C2681370704703698B4201D2C7
:1032D000002070470120FCE770B504000D00224B70
:1032E000186800282DD000292CD02AF095FE1F49FF
:1032F0001D4B18682AF07EFEE369002B08D01A4E99
:10330000306820212AF07AFEE16930682AF06EFEEA
:103310001749154E30682AF06DFE216930680A227F
:103320002AF031FF134930682AF064FE6169306881
:103330000A222AF028FF002D08D10B4B18682AF02A
:103340006BFE70BD0C492AF055FED5E70B49064DC2
:1033500028682AF04FFEE16828682AF047FE2868AE
:1033600027212AF04BFEE8E7CCD10020F0D3031050
:10337000E4A90310ECA90310F4A90310F4B003109E
:1033800070B50400057E002D23D00369002B08D002
:10339000C268D35C002B01D1002503E0FFF77EFF5C
:1033A00000E00025E36822699B1800221A70E0689B
:1033B00032F044F96061002D0BD0064B18680028EC
:1033C00007D005492AF016FE044B19782000FFF7B4
:1033D00083FF70BDCCD10020FCA90310380E002063
:1033E00010B50400FFF7CCFF606910BD10B50400F4
:1033F000FFF7C6FF206910BD70B50500FFF7F6FFA7
:1034000004002800FFF7ECFF201A70BD08B4024B3F
:103410009C46043808BC6047F933001070B50400BE
:103420000D00FFF7ADFFE16828002AF0DFFD70BD59
:1034300010B50400FFF7A4FF01232376E06810BD58
:1034400010B50400FFF79CFFE46803E033F03CFA9A
:103450002070013420780028F8D110BDF8B506009E
:10346000FFF78EFF7469002C1DD0F7683D0000E067
:103470000135287830F056FA0028F9D1013C3C1982
:10348000207830F04FFA002803D0A54201D8013C43
:10349000F6E70134621B7261BD4205D8F3687269B8
:1034A0009B1800221A70F8BD2900380037F080FA06
:1034B000F4E770B582B004000D00FFF761FF6369A7
:1034C000002B02D1002002B070BDE0680A2201A9E1
:1034D00033F036F90600E268019B9A420DD0019C58
:1034E0002078002806D030F01DFA002807D00134DB
:1034F0000194F4E72E600130E5E70020E3E70020C7
:10350000E1E7000070B504000D00224B18680028A8
:103510002DD000292CD02AF07FFD1F491D4B1868A3
:103520002AF068FDE369002B08D01A4E306820218C
:103530002AF064FDE16930682AF058FD1749154EFC
:1035400030682AF057FD216930680A222AF01BFEF4
:10355000134930682AF04EFD616930680A222AF06A
:1035600012FE002D08D10B4B18682AF055FD70BDD6
:103570000C492AF03FFDD5E70B49064D28682AF093
:1035800039FDE16828682AF031FD286827212AF0F2
:1035900035FDE8E7CCD10020F0D30310E4A90310F7
:1035A000ECA90310F4A90310F4B0031010B5040043
:1035B0000A4B1868002809D020212AF01FFDE16974
:1035C000002904D0054B18682AF010FD10BD0449ED
:1035D000024B18682AF00EFDF8E7C046CCD1002057
:1035E000A0AF0310F8B5CE46474680B504001500DD
:1035F0001E0008AB04CB94461A780AAB1F78C84B60
:103600000360C84B43600020A060C74B23601833A1
:10361000636060762062A062E06020616061634662
:10362000E36122762423E054002D1DD0002E1ED00D
:10363000B5421FD000239846002A03D0002F01D1A5
:1036400004291AD0002D00D1A1E0E5604B1E033300
:1036500068D9002A4AD0002F48D000292AD0280053
:1036600031F0ECFF206163E000239846E4E700239B
:103670009846E1E701239846DEE7AC4BE360216121
:1036800000221A702000FFF709FEA94B18680028D5
:1036900078D0A8492AF0AEFC2000FFF787FFA649A2
:1036A000A34B18682AF0A6FCA44B19782000FFF75A
:1036B00013FE67E09D4BE36000221A702000FFF7C5
:1036C000EDFD9B4B186800285CD09D492AF092FCC8
:1036D0002000FFF76BFF9B49954B18682AF08AFC86
:1036E000964B19782000FFF7F7FD4BE08F4BE36016
:1036F00000221A702000FFF7D1FD8D4B18680028BA
:1037000040D091492AF076FC2000FFF74FFF8F4907
:10371000874B18682AF06EFC884B19782000FFF759
:10372000DBFD2FE08A4B994200D919000139216154
:103730004346002B00D12B70002E44D0206901306D
:10374000FF302BF029FC002855D000252BF04CFC35
:10375000002D52D1236999461A0031002000FFF74D
:10376000A5FD0500814500D272E04346002B00D143
:103770001BE16561E3685B1900221A70E368216947
:103780005B181A702000C0BCB946B046F8BD674B44
:10379000E36000221A702000FFF780FD644B186878
:1037A0000028EFD06B492AF025FC2000FFF7FEFE31
:1037B00069495F4B18682AF01DFC604B197820009E
:1037C000FFF78AFDDEE72000FFF768FD584B186819
:1037D0000028D7D05F492AF00DFC2000FFF7E6FE55
:1037E0005E49534B18682AF005FC544B19782000A9
:1037F000FFF772FDC6E70125A8E72000FFF74EFDA1
:1038000000236361E2681370494B186800281AD0DE
:1038100050492AF0EFFB2000FFF7C8FE5049444D05
:1038200028682AF0E7FB216928680A222AF0ABFC05
:103830004C4928682AF0DEFB002323613F4B1978AE
:103840002000FFF749FD394BE3600023236199E72E
:103850004346002B05D04B466361E3684B4400228E
:103860001A702000FFF71AFD314B1868002800D1AC
:1038700088E74346002B1BD0002F4CD03A492AF052
:10388000B9FB2000FFF792FE3849294F38682AF02B
:10389000B1FB38680A2229002AF075FC274B1B78F7
:1038A000002B6DD1254B19782000FFF715FD69E736
:1038B00028492AF09FFB2000FFF778FE2C491C4F77
:1038C00038682AF097FB38680A2229002AF05BFC46
:1038D000284938682AF08EFB184B1B78002B05D13D
:1038E000164B19782000FFF7F7FC4BE7104D2868BE
:1038F0002AF092FB204928682AF07CFB1F4928689F
:103900002AF078FB286831002AF070FB286827210C
:103910002AF074FBE4E70C492AF06CFBB1E7C046DF
:1039200098B10310E0310410D4B10310C0D10020CD
:10393000CCD100203CAA03106CAA0310380E002042
:1039400080AB0310B0AB0310E0AB031008AC031066
:10395000FEFFFF7F2CAC031040AC031074AC0310CF
:10396000A8AC0310C0AC031038AD031064AD031055
:1039700000AD031094AC0310F0D303101CAD031082
:103980000D4D28682AF048FB0C4928682AF032FBC4
:103990000B4928682AF02EFB286831002AF026FB04
:1039A000286827212AF02AFB7CE7E0682A003100FA
:1039B00036F0FEFFDDE6C046CCD10020F0D3031088
:1039C00094AD031070B504000D00FFF7D9FC6369D6
:1039D000AB4202D9E368585D70BD2000FFF75EFC82
:1039E000154B1868002824D014492AF003FB200046
:1039F000FFF7DCFD1249104E30682AF0FBFA306800
:103A00000A2229002AF0BFFB0E4930682AF0F2FA98
:103A10002000FFF7CBFD0C4930682AF0EBFA616912
:103A200030680A222AF0AFFB084B19782000FFF714
:103A300053FC0020D0E7C046CCD10020B0AD03102D
:103A4000B8AD0310CCAD0310D4AD0310380E002078
:103A5000F0B583B0040000911500019308AB1F7806
:103A600009AB1E78304B1868002827D02F492AF060
:103A7000C1FA2000FFF79AFD2D492B4B18682AF058
:103A8000B9FA002D1CD0002E31D0274B1868290020
:103A90002AF0ACFA002E30D0234D28682AF0BCFA68
:103AA000244928682AF0A6FA28680A2200992AF0F0
:103AB0006AFB214B19782000FFF70EFC03B0F0BD24
:103AC000019B002B10D0019E002E1CD01B49164DCF
:103AD00028682AF08FFA286831002AF08BFA1849F2
:103AE00028682AF083FAD7E7002FECD1D4E70E4BF1
:103AF000186822212AF082FAC7E70B4B18682221A6
:103B00002AF07CFAC8E7002FC6D0074D2868272185
:103B10002AF074FA286839002AF070FA28682721F8
:103B20002AF06CFAB8E7C046CCD10020E4AD03100F
:103B3000A8F2031058AE0310380E002050AE031048
:103B400054AE031070B504000D000E4B1868002829
:103B500016D00D492AF04EFA2000FFF727FD094B39
:103B600018682E212AF04AFA002D04D0054B186857
:103B700029002AF03FFA0549024B18682AF03AFA60
:103B800070BDC046CCD10020E4AD03106CAE031074
:103B900070B504000D00FFF7F3FB002D0BD02800DB
:103BA00031F04CFD6369834226D300281AD1002BE3
:103BB00024D1012021E02000FFF770FB104B1B688F
:103BC000002B0DD00F492000FFF7BCFF0E490C4B16
:103BD00018682AF00FFA0D4B19782000FFF77CFBCC
:103BE00000200AE0E268181A1018290031F0E8FCF9
:103BF00043425841C0B200E0002070BD0020FCE705
:103C0000CCD10020B4AE03107CAE0310380E0020DF
:103C1000F8B504000D001600FFF7B2FB6B1C09D0CD
:103C20006369AB4208D363695B1BB34230D3002E98
:103C300064D1F8BD6569F3E72000FFF72FFB384B2F
:103C40001B68002B22D037492000FFF77BFF364945
:103C5000334F38682AF0CEF938680A2229002AF052
:103C600092FA324938682AF0C5F92000FFF79EFC25
:103C70002F4938682AF0BEF9616938680A222AF0AB
:103C800082FA2C4B19782000FFF726FB6569CAE7FA
:103C90002000FFF703FB224B1B68002B2BD0214990
:103CA0002000FFF74FFF24491D4F38682AF0A2F982
:103CB00038680A2231002AF066FA1C4938682AF06E
:103CC00099F92000FFF772FC194938682AF092F937
:103CD000616938680A222AF056FA184938682AF0C9
:103CE00089F938680A2229002AF04DFA114B19780F
:103CF0002000FFF7F1FA6669761B98E7E16848193A
:103D0000AB19C9186269521B921B013236F050FE82
:103D100063699B1B6361E268D31800221A7088E70D
:103D2000CCD10020F4AE031034AE0310B0AE0310BB
:103D3000D4AD0310380E0020FCAE031004AF031006
:103D4000F0B5CE46474680B583B0040001921E0010
:103D50000AAA80CA13789846474B1B68002B18D0D4
:103D6000FFF7F0FE4549444D28682AF043F92868DA
:103D70000A2201992AF007FA237E002B0ED10C9B10
:103D8000002B1ED13E4B1978002929D12000FFF7C6
:103D9000A3FA03B0C0BCB946B046F0BD3949364BB2
:103DA000994618682AF026F9019901314B4618689E
:103DB0000A222AF0E8F934494B4618682AF01AF921
:103DC000DDE732492C4D28682AF014F928680A22C8
:103DD0000C992AF0D8F92E4928682AF00BF9D1E776
:103DE000254D28682AF018F92A4928682AF002F98E
:103DF000002E19D02849204B18682AF0FBF8002E15
:103E000018D01D4D286827212AF0F8F828683100BD
:103E10002AF0ECF8286827212AF0F0F8184B1978D6
:103E20002000FFF759FAB4E7002FE3D14346002BF7
:103E3000F4D0DFE7002F0DD018490F4D28682AF085
:103E4000D9F8286839002AF0D5F8154928682AF0E9
:103E5000CDF8E3E74346002BE0D0074D2868272143
:103E60002AF0CCF8286841462AF0C8F828682721AB
:103E70002AF0C4F8D2E7C046CCD1002058AE0310D7
:103E8000380E002010AF03101CAF031020AF03103A
:103E900030AF0310F0D3031048AF031050AE03103F
:103EA00054AE031070B504000D000E4B18680028C6
:103EB00016D00D492AF09EF82000FFF777FB094B3A
:103EC00018682E212AF09AF8002D04D0054B1868A6
:103ED00029002AF08FF80549024B18682AF08AF861
:103EE00070BDC046CCD1002058AF03106CAE03109B
:103EF000F0B5C64600B50600884617001D0008004C
:103F0000FFF73EFA3000FFF73BFA7469002C02D14C
:103F10003B002B4322D07B1C24D06B1C00D02C00F8
:103F2000A74221D87369A34245D37369BB4266D0C7
:103F3000A74264D0E41B4046FFF758FAA04265D37D
:103F40004346D868F168C919220036F031FD43466E
:103F50005C61DB681B1900221A7053E04046FFF7D2
:103F6000AFF94FE02700D8E73000FFF797F9404658
:103F7000FFF794F9394B1B68002B18D038493000F3
:103F8000FFF790FF3749354D28682AF033F83000A5
:103F9000FFF70CFB344928682AF02CF8334B1978CA
:103FA0003000FFF7AFFA3B0027001C00BAE73B00E8
:103FB00027001C00B6E73000FFF770F94046FFF716
:103FC0006DF9264B1B68002B14D025493000FFF7F4
:103FD00069FF2449214C20682AF00CF83000FFF7D3
:103FE000E5FA234920682AF005F8204B19783000BB
:103FF000FFF788FA7469A74297D9270095E74046EA
:10400000FFF75EF9404680BCB846F0BD3000FFF7D0
:1040100045F94046FFF742F9104B1B68002B19D0B9
:104020000F493000FFF78EFD12490C4D286829F02A
:10403000E1FF4046FFF7BAFA0F49286829F0DAFF96
:1040400028680A2221002AF09EF8084B1978404679
:10405000FFF758FA4046FFF733F9D3E7CCD10020F9
:1040600064AF0310C4B0031070AF0310380E00200B
:1040700084AF031098AF031058AE0310F0B5D646C6
:104080004F464646C0B582B005000F001400984662
:104090000AAB1B7899460BAB1E780CAB1B789A4683
:1040A000FFF76EF93800FFF70BF901AB4A461A70BB
:1040B00000225A704346002B00D16EE0631C00D1F1
:1040C000B7E06B699946A34200D1B5E068D3534687
:1040D000002B00D194E0E8680019414631F0EDFA78
:1040E000002E05D0002803D0002C00D1A7E001202D
:1040F0000619B14500D1A4E05346002B00D185E05C
:10410000E8688019414631F06DFA04003B69A3422A
:1041100000D382E02800FFF7C1F83800FFF7BEF8AF
:104120004C4B1B68002B2ED04B492800FFF70AFD93
:104130004A49484B9846186829F05CFF3800FFF759
:1041400035FA47494346186829F054FF4346186832
:104150000A2221002AF017F842494346186829F03C
:1041600049FF43461868E968891903685B682200BB
:10417000984743461868272129F040FF3A4B1978A1
:104180003800FFF7BFF9A0196B6983425CD902B010
:10419000E0BCBA46B146A846F0BD01AB98468DE7F3
:1041A0002800FFF77BF83800FFF778F8294B1B68E9
:1041B000002B22D028492800FFF7C4FC2B49254EAC
:1041C000306829F017FF30680A22210029F0DBFF50
:1041D0002749306829F00EFF2800FFF7E7F9254945
:1041E000306829F007FF696930680A2229F0CBFF9F
:1041F0001D4B19782800FFF76FF801204042C6E7F1
:10420000E8680019414631F0EDF969E7E86880197E
:10421000414631F052FA040078E7A4192300320035
:1042200039002800FFF764FE6B699C420FD2200022
:10423000ADE701204042AAE701204042A7E7012064
:10424000A5E701204042A2E7012040429FE701206C
:1042500040429CE7CCD10020ACAF0310B4AF0310B8
:1042600058AE0310C8AF0310380E0020A4AE0310E0
:10427000B0AE0310D4AD0310F0B5CE46474680B5BE
:1042800085B081460D0090461C000CAB1F780DAB2D
:104290001E780800FFF714F8002C11D02378002BAB
:1042A00029D002960197002300932300424629005B
:1042B0004846FFF7E3FE05B0C0BCB946B046F0BDC6
:1042C0004846FEF7EBFF2800FEF7E8FF174B1B6898
:1042D000002B0DD016494846FFF734FC1549134B07
:1042E000186829F087FE144B19784846FEF7F4FF4A
:1042F00001204042DFE74846FEF7D0FF2800FEF7E6
:10430000CDFF0A4B1B68002B0DD009494846FFF72B
:1043100019FC0A49054B186829F06CFE064B197800
:104320004846FEF7D9FF01204042C4E7CCD1002027
:10433000ACAF0310D8AF0310380E002004B0031048
:10434000F0B5CE46474680B583B081460C00904616
:104350001D000AAB1E780BAB1F780800FEF7B0FFFC
:104360002800FFF70DF8EB68019700964246210000
:104370004846FFF781FF03B0C0BCB946B046F0BD68
:1043800070B50C000C4B1868002803D00B4B1B7841
:10439000002B00D170BD29F03FFE0949064D286869
:1043A00029F028FE0749286829F024FE28680A22F7
:1043B000210029F0E8FEEDE7CCD10020380E0020E6
:1043C000F0D303102CB00310F8B505000E00140054
:1043D000FEF7D6FF002E19D0300031F02FF900285B
:1043E00030D0631C00D18DE06B69A34200D18CE01A
:1043F00042D3002B00D18BE0ED682819310031F059
:104400006DF9002800D186E0401BF8BD2800FEF7BA
:1044100045FF424B1B68002B11D041492800FFF794
:1044200091FB40493D4B186829F0E4FD210028002C
:10443000FFF7A6FF3C4B19782800FEF74DFF01203F
:104440004042E2E72800FEF729FF344B1B68002BAF
:10445000C7D033492800FFF775FB34492F4B186844
:1044600029F0C8FD21002800FFF78AFF2E4B19789C
:104470002800FEF731FFB4E72800FEF70FFF274BB7
:104480001B68002B26D026492800FFF75BFB284934
:10449000224F386829F0AEFD38680A22210029F041
:1044A00072FE2449386829F0A5FD2800FFF77EF840
:1044B0002149386829F09EFD696938680A2229F087
:1044C00062FE194B1B78002B07D1174B1978280077
:1044D000FEF702FF0120404297E7104C206829F0C8
:1044E0009BFD1649206829F085FD1549206829F0B3
:1044F00081FD3100206829F079FD2721206829F00D
:104500007DFDE2E7012040427FE7012040427CE759
:104510000120404279E70120404276E7CCD10020DB
:104520003CB003107CAE0310380E002058B00310CE
:10453000A4AE0310B0AE0310D4AD0310F0D303103B
:104540003CAE0310F8B504000F001500FEF718FF8D
:10455000002F16D0380031F071F800282DD0636993
:10456000002B00D19BE06A1C43D0AB4243D300D860
:104570005D1E834200D296E0E6683000012464426A
:1045800080E02000FEF78AFE484B1B68002B11D00C
:1045900047492000FFF7D6FA4649444B186829F0EE
:1045A00029FD29002000FFF7EBFE434B197820007E
:1045B000FEF792FE0124644273E02000FEF76EFED7
:1045C0003A4B1B68002B11D039492000FFF7BAFA8B
:1045D0003A49364B186829F00DFD29002000FFF7F5
:1045E000CFFE354B19782000FEF776FE0124644299
:1045F00057E01D00B9E72000FEF750FE2B4B1B686B
:10460000002B26D02A492000FFF79CFA2C49274E80
:10461000306829F0EFFC30680A22290029F0B3FD48
:104620002849306829F0E6FC2000FEF7BFFF264944
:10463000306829F0DFFC616930680A2229F0A3FDA7
:104640001D4B1B78002B07D11B4B19782000FEF760
:1046500043FE0124644224E0144D286829F0DCFC68
:104660001A49286829F0C6FC1949286829F0C2FCB3
:104670003900286829F0BAFC2721286829F0BEFCF7
:10468000E2E70130731983420BD3390031F026F889
:10469000002806D0831BAB42F3D81C00F1E70124AD
:1046A00064422000F8BD01246442FAE7CCD1002026
:1046B00078B003107CAE0310380E002058B0031001
:1046C000A4AE0310B0AE0310D4AD0310F0D30310AA
:1046D0003CAE0310F0B5DE4657464E464546E0B5C3
:1046E00087B005000E009046FEF74AFE002E1BD054
:1046F0004346002B2ED0300030F0A0FF049007007E
:10470000404630F09BFF81466B699B46002B73D07F
:10471000EC68444534D0002F48D0049A871A65D0FD
:1047200000D596E0DA4699E02800FEF7B7FD7B4B0E
:104730001B68002B60D07A492800FFF703FA7949FB
:10474000764B186829F056FC774B19782800FEF74D
:10475000C3FD51E02800FEF7A1FD704B1B68002B44
:104760004AD06F492800FFF7EDF970496B4B186884
:1047700029F040FC6C4B19782800FEF7ADFD3BE0BA
:104780002800FEF78BFD654B1B68002B34D0644975
:104790002800FFF7D7F96649604B186829F02AFC12
:1047A000614B19782800FEF797FD25E02800FEF7F9
:1047B00075FD5A4B1B68002B1ED059492800FFF786
:1047C000C1F95C49554C206829F014FC5A4920680D
:1047D00029F010FC544B19782800FEF77DFD0BE002
:1047E0004A464146200036F0E3F84C4431002000B0
:1047F00030F074FF041EF3D107B0F0BCBB46B246E4
:10480000A946A046F0BD059B1A1B934621005046C1
:1048100036F0CEF8DA4454464A464146200036F097
:10482000C7F8CA44059C049B9C4664446B69FB180A
:104830006B613100200030F051FF05900028E2D17B
:10484000200030F0FBFE421C2100504636F0B0F84C
:10485000D2E7A246EDE7049BC418BA443100200019
:1048600030F03CFF0028F6D151462800FEF72DFD20
:10487000002824D05A46013A31002800FFF762FE92
:1048800004006A69824242D9E968049B1B19C9186D
:10489000C819D21A36F08CF86B699B46BB44E8689D
:1048A00000194A46414636F083F85B466B61EB6877
:1048B0005B4400221A70002C29D0621EDCE728001D
:1048C000FEF7ECFC154B1B68002B95D01449002318
:1048D000029301930093330052462800FFF730FA09
:1048E000114B1B78002B00D186E714490B4C206834
:1048F00029F080FB1249206829F07CFB20684146A2
:1049000029F074FB2068272129F0ACFB74E753469B
:104910006B61EB68534400221A706DE7CCD1002024
:10492000C0AE031084B00310380E002098B00310FE
:10493000B0B00310D0B00310D8B00310F0D3031000
:10494000E4B0031010B50249FFF7FCF810BDC046F3
:10495000F8B0031010B50400074B186800280AD0FF
:10496000064929F047FB2000FEF720FE0449024BD0
:10497000186829F03FFB10BDCCD10020E4AD031036
:10498000A8F20310F0B5C64600B584B0040088460E
:1049900015001E00FEF7F4FC67697F19002E00D099
:1049A0002F004346002B08D0002D2AD1002E24D101
:1049B000200004B080BCB846F0BD2000FEF76EFCBD
:1049C000504B1B68002B0ED0002E12D02000FFF79A
:1049D000C1FF4D494B4B186829F00CFB4B4B197824
:1049E0002000FEF779FC002EE2D02000FEF768FCE4
:1049F000DEE72000FFF7A6FFEBE72000FEF760FCF4
:104A0000D6E72A0041462000FEF750FCA84214D306
:104A100039002000FEF759FC002850D0002E6DD13F
:104A2000E0686369C0182A00414635F0C1FF67613C
:104A3000E368DB1900221A70BAE72000FEF72EFCAB
:104A4000304B1B68002B1BD0002E1FD02000FFF71F
:104A500081FF2F492B4F386829F0CCFA38680A2299
:104A6000290029F090FB2B49386829F0C3FA274B1D
:104A70001B78002B0ED1254B19782000FEF72CFC5B
:104A8000002E95D02000FEF71BFC91E72000FFF7D9
:104A900059FFDEE71B4D286829F0BEFA1E49286839
:104AA00029F0A8FA1D49286829F0A4FA2868414687
:104AB00029F09CFA2868272129F0A0FADBE72000DA
:104AC000FEF7ECFB002E0ED000230193009342462C
:104AD00039002000FEF7BCFF002E00D168E720005F
:104AE000FEF7EEFB64E70E49029500230193009365
:104AF00043463A002000FFF723F9EDE72000FEF7D8
:104B0000DFFB8DE7CCD100207CAE0310380E0020F7
:104B100000B103100CB10310F0D303103CAE03102E
:104B2000F8B0031010B50023FFF72CFF10BD0000F4
:104B3000F0B5C64600B584B005000E001400FEF7BF
:104B40001FFC002C04D1200004B080BCB846F0BD8E
:104B50006F69E3199846220031002800FEF7A6FB92
:104B6000A0420DD341462800FEF7AFFB002857D0E6
:104B7000220031002800FFF7D5FF6C69E41BE2E753
:104B80002800FEF78BFB2E4B1B68002B1AD02D49FB
:104B90002800FEF7D7FF2C49294F386829F02AFA58
:104BA00038680A22210029F0EEFA2849386829F0ED
:104BB00021FA274B1B78002B06D1254B19782800AA
:104BC000FEF78AFB0024BEE71D4F386829F024FA5F
:104BD0002049386829F00EFA1F49386829F00AFA86
:104BE0001E49386829F006FA002703E0202129F041
:104BF00005FA0137A7420DD2F15D114B98461868AE
:104C00000A2229F0B2FA43461868631EBB42EDD966
:104C10002C21ECE712490A4B186829F0EBF9CCE794
:104C20002800FEF73BFB0749029400230193009301
:104C3000330042462800FFF783F8002483E7C0468C
:104C4000CCD1002024B1031000B103102CB103100B
:104C5000380E0020F0D3031048AF031044B1031006
:104C600048B1031008B4024B9C46043808BC6047A6
:104C7000314B001010B5FFF76DFE10BD70B584B05C
:104C800004000E001500FEF77BFB002E14D0002D53
:104C900002D02369002B31D06B461E7300236A4675
:104CA000537303A830F0CAFC02002B0003A92000B4
:104CB000FFF768FE04B070BD2000FEF7EFFA174B57
:104CC0001B68002B0ED0002D10D02000FFF7D2FF64
:104CD0001349124B186829F08DF9124B19782000EE
:104CE000FEF7FAFA002D05D12000E3E72000FFF7D8
:104CF00029FEEDE72000FEF7E3FAF5E72000FEF7D6
:104D0000CDFA002301930096002201212000FEF736
:104D10009FFE2000FEF7D4FA2000CBE7CCD1002084
:104D20004CB10310380E002010B50022FFF7A6FF8B
:104D300010BD000070B584B004000D00FEF720FB2C
:104D4000002D0ED06669013631002000FEF7BDFA55
:104D500000281DD029002000FFF7E6FF012004B045
:104D600070BD2000FEF79AFA104B1B68002B0DD087
:104D70000F492000FEF7E6FE0E490C4B186829F09B
:104D800039F90D4B19782000FEF7A6FA0020E6E766
:104D90002000FEF783FA0649002302930193009353
:104DA00032002000FEF7CCFF0020D8E7CCD1002055
:104DB00024B1031058B10310380E002008B4024B80
:104DC0009C46043808BC6047354D0010F8B5040017
:104DD0000D00FEF7D5FA0023A362002604E0C1B25D
:104DE0002000FFF7A1FF01262B681B6928009847C8
:104DF000002822D0626923699A421ED22B685B691F
:104E000028009847A36A0133A3620028E7D1200055
:104E1000FEF744FA0A4B18680028E5D029F0FCF8A0
:104E20000849074F386829F0E5F82000FEF7BEFB77
:104E30000549386829F0F8F8D6E73000F8BDC046D3
:104E4000CCD1002060B103106CB1031070B5040028
:104E50000D001600FEF794FA002D09D0280030F05E
:104E6000EDFB0200330029002000FFF78BFD70BD31
:104E70002000FEF713FA0F4B1B68002B0ED0002EFC
:104E800010D02000FFF7F6FE0B490A4B186829F0F6
:104E9000B1F80A4B19782000FEF71EFA002E05D152
:104EA0002000E4E72000FFF74DFDEDE72000FEF7CE
:104EB00007FAF5E7CCD100207CAE0310380E0020B5
:104EC00010B50022FFF7C2FF10BD000010B5024967
:104ED000FEF738FE10BDC04688B10310F0B5C646D7
:104EE00000B584B004000F001500FEF749FA6669AA
:104EF00073199846002F06D0002D19D1200004B058
:104F000080BCB846F0BD2000FEF7C8F93B4B1B68DB
:104F1000002BF3D02000FFF7D9FF3949374B186831
:104F200029F068F8374B19782000FEF7D5F9E5E746
:104F30002A0039002000FEF7B9F9A84218D34146EB
:104F40002000FEF7C2F9002849D0E1684819320074
:104F500035F02EFDE068B84203D02A00390035F064
:104F600027FD43466361E368434400221A70C5E7A6
:104F70002000FEF793F9214B1B68002BBED02000C8
:104F8000FFF7A4FF20491D4E306829F033F8306840
:104F90000A22290029F0F7F81C49306829F02AF87C
:104FA000184B1B78002B05D1164B19782000FEF703
:104FB00093F9A3E7114D286829F02EF814492868C1
:104FC00029F018F81349286829F014F828683900DE
:104FD00029F00CF82868272129F010F8E4E72000D0
:104FE000FEF75CF90C4902950023019300933B0006
:104FF00042462000FEF7A4FE80E7C046CCD1002048
:105000007CAE0310380E002000B103100CB1031069
:10501000F0D303103CAE031088B1031070B5040048
:105020000D00FEF7ADF9002D08D0280030F006FB8A
:10503000020029002000FFF751FF70BD2000FEF79D
:105040002DF9094B1B68002B0CD02000FFF73EFF09
:105050000649054B186828F0CDFF054B197820004C
:10506000FEF73AF92000E8E7CCD100207CAE03102F
:10507000380E002010B502490120FEF7EFF810BDF0
:10508000FFFF000010B5040000238360C3600361CC
:1050900043618361C36103624362044981622C30CE
:1050A00000F036F80123237110BDC04688130000BC
:1050B00070B504000D00064B83622C3000F022F81E
:1050C0000023237125602000FFF7DCFF200070BD66
:1050D0008813000010B5012800D010BD034B994281
:1050E000FBD103480021FFF7E3FFF6E7FFFF0000D5
:1050F00080D1002010B502490120FFF7EBFF10BD61
:10510000FFFF000000230372436043720360704797
:1051100010B50400016029F041FD60600123237295
:105120000023637210BDF0B5C64600B507000D0040
:1051300014009846002604E0FF2108E020700134A6
:10514000013646450AD2002DF6D0297801353B6854
:105150009A6838009047002CF0D1F1E780BCB8463F
:10516000F0BDF0B5446802273C40051DC026B601DD
:105170002E433760013992011143DB011943036863
:105180005940CF220A4080235B0103431A608023E9
:105190009B012B431C60F0BD70477047F8B50600BB
:1051A0000C001700002507E0217833689B68300069
:1051B0009847207001340135BD42F5D3F8BD70B574
:1051C00082B005002AF0AEF86C6A1C350EE06B4622
:1051D00022001032190041CA41C1009859680122C9
:1051E0002AF0A8FB20002DF072FF0400A542EED1AA
:1051F0002AF080F802B070BD10B582B00400837D43
:10520000002B1BD1207C05212AF046FB237D002B9F
:105210001AD1A07C05212AF03FFB607C05212AF0F1
:105220003BFB002300936A46137153712000083042
:10523000062269462DF08CFC02B010BD0023837558
:1052400040682CF06FF8DDE7E07C05212AF024FBB4
:10525000DFE70000F0B5C64600B582B004001600D6
:105260001D0008AB1F7809AB1B789846134B0360F1
:10527000134B0360134B836000202073012363737F
:105280002077206223001C336362A362E0626160C6
:105290006075A07500906B46187158712000083039
:1052A000062269462DF054FC267443466374A774A5
:1052B000E574200002B080BCB846F0BD9CB303107A
:1052C000DCB3031000093D000B0909010B43DBB2FD
:1052D00099089B00332293435AB233230B40134364
:1052E000DBB25A085B0055218B435BB2552010405E
:1052F0001843C0B2704710B584B004006B46D97132
:10530000837D002B2DD0437B012B23D0C9B2FFF727
:10531000DBFF6B46D91D08706068036807225340A5
:1053200008321A4080235B0103431A60606801233E
:105330000F226A4435F0FCFA637B012B0DD00F235A
:105340006B4419782000FFF7BFFF0F236B441870E0
:1053500004B010BD6B46D879DBE70F236B44187897
:10536000F3E70020F4E7F0B5C64600B504000E00F0
:1053700015009846837D002B18D041680B680722E2
:10538000534008321A4080235B010B431A60437B71
:10539000012B01D000271DE0002D0AD0002E0ED0D9
:1053A000406843462A00310035F0C2FA80BCB84656
:1053B000F0BD40684246310035F0A2FAF6E7406899
:1053C00043462A00FF2135F043FAEFE72870013603
:1053D000013501374745E9D2317823689B682000C1
:1053E000984701002870637B012BEFD02000FFF766
:1053F0006BFFEBE770B505000C00C9B2FFF764FF67
:105400000602210A2800FFF75FFF00B2304380B296
:1054100070BD10B584B004006B46D980837D002B2D
:105420002BD0437B012B21D089B2FFF7E3FF6B46E2
:10543000991D0880606803680F229A4380235B01EE
:1054400003431A60606801230E226A4435F078FA3B
:10545000637B012B0DD00E236B4419882000FFF7CE
:10546000C9FF0E236B44188004B010BD6B46D8886A
:10547000DDE70E236B441888F3E70020F4E7000013
:1054800070B582B00A006946184B60CB60C1437D9D
:10549000002B0BD1012191404568154CA54212D03B
:1054A0000024A4006D4664590C420ED1017C914247
:1054B0000CD0002B0FD042680D4B9A4209D00D49F9
:1054C0000D482DF07BFC0124EBE70274012002B0B3
:1054D00070BD0A49F4E74168054B994203D005497C
:1054E00007482DF06BFC0549FAE7C04618B40310D5
:1054F0000000044068DD0310FCB10310A00004109C
:105500002CB2031070B582B00A006946184B60CB0C
:1055100060C1437D002B0BD1012191404568154CA2
:10552000A54212D00024A4006D4664590C420ED14D
:10553000C17C91420CD0002B0FD042680D4B9A4297
:1055400009D00D490D482DF039FC0124EBE7C27458
:10555000012002B070BD0A49F4E74168054B994249
:1055600003D0054907482DF029FC0549FAE7C04654
:1055700020B403100000044068DD031060B2031083
:10558000A000041090B2031070B582B00A00694602
:10559000184B60CB60C1437D002B0BD101219140A2
:1055A0004568154CA54212D00024A4006D466459EC
:1055B0000C420ED1817C91420CD0002B0FD042685E
:1055C0000D4B9A4209D00D490D482DF0F7FB0124EF
:1055D000EBE78274012002B070BD0A49F4E741682C
:1055E000054B994203D0054907482DF0E7FB0549D3
:1055F000FAE7C04628B403100000044068DD031039
:10560000C4B20310A0000410F8B2031070B582B049
:105610000A006946184B60CB60C1437D002B0BD15B
:10562000012191404568154CA54212D00024A400E8
:105630006D4664590C420ED1417C91420CD0002B36
:105640000FD042680D4B9A4209D00D490D482DF0FC
:10565000B5FB0124EBE74274012002B070BD0A499A
:10566000F4E74168054B994203D0054907482DF0FE
:10567000A5FB0549FAE7C04630B40310000004401A
:1056800068DD031030B30310A000041060B30310F2
:1056900070B504000D00007C01212AF0FDF825758D
:1056A000002D12D1A07C01212AF0F6F8607C0121A6
:1056B0002AF0F2F823681B6AA168E2682000984784
:1056C00023685B6A2000984770BDE07C01212AF0C6
:1056D000E3F8E7E710B50021FFF7DAFF10BD70B57A
:1056E00005000C00002C0AD0E1682800FFF7F7FF46
:1056F000A668182120002DF08BFB3400F2E770BD66
:1057000010B50400044B03601830216AFFF7E7FF6F
:10571000024B2360200010BDDCB303109CB30310C8
:1057200010B50400064B03601830216AFFF7D7FF5D
:10573000044B2360302120002DF06AFB200010BDB7
:10574000DCB303109CB3031070B582B004000D00ED
:10575000012806D0002C02D11A4B9D4220D002B065
:1057600070BD184B9942F5D1174B184A1A600022A8
:105770001A7101325A71164813230193013B0093A9
:10578000013B0F321349FFF765FD13480F230193C7
:10579000013B0093013B0C221049FFF75BFDD9E769
:1057A0000D4C0F4E2660216A0E48FFF798FF0E4DF4
:1057B0002560074C2660216A0C48FFF790FF2560A2
:1057C000CDE7C046FFFF0000D0D1002000093D001A
:1057D00054CB002000C0034084CB002000000440D4
:1057E000DCB303109CCB00209CB303106CCB0020D7
:1057F000F0B5C64600B5804617008C680D1D012324
:1058000002E0E26825001400002C0AD03E682569F9
:105810000123AE4200DB0023DBB2AE42F1DAA26824
:10582000F0E72800002B04D0CB68AB420CD02DF061
:1058300056FC02693B689A420ADA43461C605D6086
:10584000404680BCB846F0BD43461C605D60F7E74B
:1058500043461860002342465360F1E730B510001C
:1058600000E0C968002906D00D691C68A542F8DB74
:1058700008008968F6E730BD10B50B008168021D8D
:10588000FFF7ECFF10BD30B5100000E0C96800293B
:1058900006D01D680C69A542F8DA08008968F6E7A9
:1058A00030BDF8B5CE46474680B50700884616009D
:1058B0008A680D1D03E09C4209DA15009268002AEF
:1058C00016D0136934689C42F5DDD268F7E7916819
:1058D000D368994633004046FFF7C0FF0400330009
:1058E0002A0049464046FFF7CEFF3C60786001E061
:1058F0003D607D603800C0BCB946B046F8BD10B50B
:1059000004008168FFF7EBFE0023A360221DE26024
:105910002261636110BD70B50400056828002DF098
:10592000DAFB2060280070BD10B504000800211DBE
:105930002DF03CFC18212DF06BFA6369013B63618B
:1059400010BD30B583B0040001911500C3689942C1
:105950000DD1031D9A420AD1FFF7D1FF0AE00021C1
:1059600001A8FFF7D8FF01002000FFF7DDFF019B32
:10597000AB42F4D103B030BD30B583B004000A00AF
:1059800001006846FFF78DFF65690099019A2000C4
:10599000FFF7D7FF6069281A03B030BD00B583B0A8
:1059A0000191183001A9FFF7E7FF03B000BD10B562
:1059B00004004068002802D018212DF029FA2000A8
:1059C00010BDF0B5C64600B504000E0015001F005E
:1059D0000A1D954213D03A6890462A6942452FDD48
:1059E000CA68AA4220D028002DF079FB03694345FC
:1059F00020DAC368002B1AD02560656010E04B697F
:105A0000002B08D00B691A693968914203DD002226
:105A10000260436004E03A0031002000FFF7E8FE36
:105A2000200080BCB846F0BD02604260F8E7236009
:105A30006060F5E73A0031002000FFF7D9FEEFE79C
:105A400042451BDA0A69AA420BD028002DF03FFB21
:105A5000036998450CDAEB68002B06D02060606083
:105A6000DEE7002303604260DAE723606560D7E782
:105A70003A0031002000FFF7BBFED1E705600023AC
:105A80004360CDE770B504001D00002909D0012056
:105A9000231D29002DF027FB636901336361280072
:105AA00070BD031D9A4205D02B691169994203DC30
:105AB0000020EDE70120EBE70120E9E710B582B017
:105AC00004000091019200686368FFF7DBFF002388
:105AD000636002B010BD000010B5084B8B4205D3C7
:105AE00048004018C0002DF087F910BD044B9942C2
:105AF00001D92DF049FC2DF044FCC0465555550503
:105B0000AAAAAA0A10B50C0000220121FFF7E4FF9F
:105B10000300103306CC06C310BDF8B50400160010
:105B2000002911D00127069A10681900FFF7EAFF33
:105B30000500231D3200010038002DF0D4FA6369FE
:105B4000013363612800F8BD021D964205D01A6832
:105B50003169914203DC0027E5E70127E3E70127EC
:105B6000E1E770B586B004000D00160004A8FFF749
:105B70003FFE059A002A0DD00395049903AB0093CC
:105B800033002800FFF7C9FF2060012323712000A4
:105B900006B070BD049B236000232371F7E700B5B6
:105BA00085B00291002303930100183102AA6846D0
:105BB000FFF7D7FF05B000BD30B583B015001C005E
:105BC00000220121FFF788FF2A68019223680093D1
:105BD000126802611B68436103B030BD30B585B007
:105BE00004000D0011001A000290089BFFF7E4FF6B
:105BF0000300039010332A0021006846FFF7E1FEFE
:105C0000019B002B0BD000991A0002A8FFF756FF4A
:105C1000040002A8FFF7CBFE200005B030BD009CB9
:105C2000F7E70000F0B585B004000D0016001F0076
:105C300011002800FFF720FE2A1D0100824203D038
:105C4000326803699A420EDA02960397094A03AB57
:105C5000009302AB2800FFF7C1FF206001232371EE
:105C6000200005B0F0BD3B68436120600023237134
:105C7000F6E7C04614B40310F0B5CE46474680B5EB
:105C80008BB080460291039229F04CFB43469B7DEA
:105C9000002B04D0029A41468968914231D0029C7F
:105CA00042469268944206D0002B31D14346586850
:105CB00021002BF0ADFB40460830062202A92CF053
:105CC00047FF434658681B7B022B26D0032B26D167
:105CD0000122012B02D0032B23D1023B012400948B
:105CE0000821FFF73EFA43469C75D0231B061B682C
:105CF000002B18D0294F43465E6A1C234344994623
:105D000042E04246918902AA92889142C7D1ECE7CB
:105D1000434658682BF006FBC8E70122D9E700226A
:105D2000D7E70023DAE71E4FE5E706AA3300103372
:105D300011CB11C2069B0493DA1707252C001440DF
:105D4000E418E410A400E159520F9B182B409B1A51
:105D50009B00D9400F23194005914146183105ABEE
:105D600004AA08A8FFF75EFFE159049AD3175B0F56
:105D7000D2181540ED1AAD00059BAB405940E151DA
:105D800030002DF0A4F90600B145CED129F0B2FAC9
:105D90000BB0C0BCB946B046F0BDC0463041014072
:105DA0000041014010B502490120FFF7CDFC10BDB4
:105DB000FFFF0000012800D07047054B9942FBD13E
:105DC000044B054A1A6000221A7101325A71F3E736
:105DD000FFFF0000D8D1002000093D0010B50249A6
:105DE0000120FFF7E7FF10BDFFFF0000012800D0F2
:105DF0007047054B9942FBD1044B054A1A600022BB
:105E00001A7101325A71F3E7FFFF0000E0D1002060
:105E100000093D0010B502490120FFF7E7FF10BD62
:105E2000FFFF0000012800D07047054B9942FBD1CD
:105E3000044B054A1A6000221A7101325A71F3E7C5
:105E4000FFFF0000E8D1002000093D0070B505000B
:105E50000C1E09D008002FF0F1FB02002B685B68D4
:105E600021002800984770BD0020FCE710B50249CA
:105E70000120FFF7D7FF10BDFFFF0000012800D071
:105E80007047054B9942FBD1044B054A1A6000222A
:105E90001A7101325A71F3E7FFFF0000F0D10020C0
:105EA00000093D0010B502490120FFF7E7FF10BDD2
:105EB000FFFF0000012800D07047054B9942FBD13D
:105EC000044B054A1A6000221A7101325A71F3E735
:105ED000FFFF0000F8D1002000093D0010B5024985
:105EE0000120FFF7E7FF10BDFFFF0000012800D0F1
:105EF0007047054B9942FBD1044B054A1A600022BA
:105F00001A7101325A71F3E7FFFF000000D200203E
:105F100000093D0010B502490120FFF7E7FF10BD61
:105F2000FFFF0000012800D07047054B9942FBD1CC
:105F3000044B054A1A6000221A7101325A71F3E7C4
:105F4000FFFF000008D2002000093D0010B5024903
:105F50000120FFF7E7FF10BDFFFF0000012800D080
:105F60007047054B9942FBD1044B054A1A60002249
:105F70001A7101325A71F3E7FFFF000010D20020BE
:105F800000093D0010B502490120FFF7E7FF10BDF1
:105F9000FFFF0000012800D07047054B9942FBD15C
:105FA000044B054A1A6000221A7101325A71F3E754
:105FB000FFFF000018D2002000093D0010B5024983
:105FC0000120FFF7E7FF10BDFFFF0000012800D010
:105FD0007047054B9942FBD1044B054A1A600022D9
:105FE0001A7101325A71F3E7FFFF000020D200203E
:105FF00000093D0010B502490120FFF7E7FF10BD81
:10600000FFFF0000012800D07047054B9942FBD1EB
:10601000044B054A1A6000221A7101325A71F3E7E3
:10602000FFFF000028D2002000093D0010B5024902
:106030000120FFF7E7FF10BDFFFF0000012800D09F
:106040007047054B9942FBD1044B054A1A60002268
:106050001A7101325A71F3E7FFFF000030D20020BD
:1060600000093D0010B502490120FFF7E7FF10BD10
:10607000FFFF0000012800D07047054B9942FBD17B
:10608000044B054A1A6000221A7101325A71F3E773
:10609000FFFF000038D2002000093D0010B5024982
:1060A0000120FFF7E7FF10BDFFFF0000012800D02F
:1060B0007047054B9942FBD1044B054A1A600022F8
:1060C0001A7101325A71F3E7FFFF000040D200203D
:1060D00000093D0010B502490120FFF7E7FF10BDA0
:1060E000FFFF0000012800D07047054B9942FBD10B
:1060F000044B054A1A6000221A7101325A71F3E703
:10610000FFFF000048D2002000093D0010B5024901
:106110000120FFF7E7FF10BDFFFF0000012800D0BE
:106120007047054B9942FBD1044B054A1A60002287
:106130001A7101325A71F3E7FFFF000050D20020BC
:1061400000093D0010B502490120FFF7E7FF10BD2F
:10615000FFFF0000012800D07047054B9942FBD19A
:10616000044B054A1A6000221A7101325A71F3E792
:10617000FFFF000058D2002000093D0010B5024981
:106180000120FFF7E7FF10BDFFFF0000012800D04E
:106190007047054B9942FBD1044B054A1A60002217
:1061A0001A7101325A71F3E7FFFF000060D200203C
:1061B00000093D0010B502490120FFF7E7FF10BDBF
:1061C000FFFF0000012800D07047054B9942FBD12A
:1061D000044B054A1A6000221A7101325A71F3E722
:1061E000FFFF000068D2002000093D0010B5024901
:1061F0000120FFF7E7FF10BDFFFF0000012800D0DE
:106200007047054B9942FBD1044B054A1A600022A6
:106210001A7101325A71F3E7FFFF000070D20020BB
:1062200000093D0010B502490120FFF7E7FF10BD4E
:10623000FFFF0000012800D07047054B9942FBD1B9
:10624000044B054A1A6000221A7101325A71F3E7B1
:10625000FFFF000078D2002000093D0010B5024980
:106260000120FFF7E7FF10BDFFFF0000012800D06D
:106270007047054B9942FBD1044B054A1A60002236
:106280001A7101325A71F3E7FFFF000080D200203B
:1062900000093D0010B502490120FFF7E7FF10BDDE
:1062A000FFFF0000012800D07047054B9942FBD149
:1062B000044B054A1A6000221A7101325A71F3E741
:1062C000FFFF000088D2002000093D0010B5024900
:1062D0000120FFF7E7FF10BDFFFF0000012800D0FD
:1062E0007047054B9942FBD1044B054A1A600022C6
:1062F0001A7101325A71F3E7FFFF000090D20020BB
:1063000000093D0010B502490120FFF7E7FF10BD6D
:10631000FFFF0000012800D07047054B9942FBD1D8
:10632000044B054A1A6000221A7101325A71F3E7D0
:10633000FFFF000098D2002000093D0010B502497F
:106340000120FFF7E7FF10BDFFFF0000012800D08C
:106350007047054B9942FBD1044B054A1A60002255
:106360001A7101325A71F3E7FFFF0000A0D200203A
:1063700000093D0010B502490120FFF7E7FF10BDFD
:10638000FFFF0000012800D07047054B9942FBD168
:10639000044B054A1A6000221A7101325A71F3E760
:1063A000FFFF0000A8D2002000093D0010B50249FF
:1063B0000120FFF7E7FF10BDFFFF0000012800D01C
:1063C0007047054B9942FBD1044B054A1A600022E5
:1063D0001A7101325A71F3E7FFFF0000B0D20020BA
:1063E00000093D0010B502490120FFF7E7FF10BD8D
:1063F000FFFF0000012800D07047054B9942FBD1F8
:10640000044B054A1A6000221A7101325A71F3E7EF
:10641000FFFF0000B8D2002000093D0010B502497E
:106420000120FFF7E7FF10BDFFFF0000012800D0AB
:106430007047054B9942FBD1044B054A1A60002274
:106440001A7101325A71F3E7FFFF0000C0D2002039
:1064500000093D0010B502490120FFF7E7FF10BD1C
:10646000FFFF0000012800D07047054B9942FBD187
:10647000044B054A1A6000221A7101325A71F3E77F
:10648000FFFF0000C8D2002000093D0010B50249FE
