:020000041000EA
:1000000000B5324B212058609868022188439860DF
:10001000D860186158612E4B002199600221596106
:100020000121F02299502B49196001219960352056
:1000300000F044F80222904214D00621196600F024
:1000400034F8196E01211966002018661A6600F04E
:100050002CF8196E196E196E052000F02FF8012189
:100060000842F9D1002199601B49196000215960AB
:100070001A491B48016001219960EB211966A021F2
:10008000196600F012F800219960164914480160C1
:100090000121996001BC002800D000471248134993
:1000A000086003C880F30888084703B5996A0420EC
:1000B0000142FBD001200142F8D103BD02B5186610
:1000C0001866FFF7F2FF186E186E02BD00000240BE
:1000D000000000180000070000035F00212200005C
:1000E000F4000018222000A00001001008ED00E03C
:1000F00000000000000000000000000074B24E7A12
:1001000000200420E3010010C3010010C50100100D
:10011000C1010010C1010010C1010010C101001097
:10012000C1010010C1010010C1010010C701001081
:10013000C1010010C1010010C9010010CB01001065
:10014000CD010010CD010010CD010010CD01001037
:10015000CD010010CD010010CD010010CD01001027
:10016000CD010010CD010010CD010010CD01001017
:10017000CD010010CD010010CD010010CD01001007
:10018000CD010010CD010010CD010010CD010010F7
:10019000CD010010CD010010CD010010CD010010E7
:1001A000CD010010CD010010CD010010CD010010D7
:1001B000CD010010CD010010CD010010CD010010C7
:1001C00000BE00BE00BE00BE00BE00BEEFF3058054
:1001D000103800BE21482249086006C881F308880B
:1001E000104720480068002801D01C48F3E70DA400
:1001F0000ECC002902D000F012F8F9E71A491B4A88
:10020000002000E001C19142FCD1194988471949F9
:1002100088471949884700BEFDE701C901C29A42D3
:10022000FBD370477C020010C00000202823002070
:10023000E42400103023002024260020D8270010BA
:100240000000042000000420D82700100010042023
:1002500000100420000000007047000000000000B3
:1002600008ED00E0000000D024260020A82A00208D
:10027000852200205D010020D5020020F8B5C0468F
:100280000448054B10B5834203D0044B002B00D02B
:10029000984710BD242600202426002000000000DE
:1002A00006480749091A8B10C90FC91810B549101B
:1002B00003D0044B002B00D0984710BD242600200B
:1002C000242600200000000010B5074C2378002BE6
:1002D00009D1FFF7D5FF054B002B02D0044800E001
:1002E00000BF0123237010BD242600200000000061
:1002F00028230020054B10B5002B03D004490548E6
:1003000000E000BFFFF7CCFF10BDC04600000000BA
:100310002826002028230020B0B582B000AF7860E6
:10032000396000F017F8084B084A9A60074B1D68BF
:10033000074B1B681C002B009D46A0476B461B68A3
:100340001800BD4602B0B0BD00ED00E00030001066
:1003500004300010494B70B51B6888B01868484BD2
:100360001B681A6890423BD08021121A490100F0A4
:10037000FFF8002834D0434C07A9200000F048F9CA
:1003800000282DD0082220003F4902F06BF80028F9
:1003900026D1012301213D4E5B42255C6B4008259F
:1003A0001A005B080A4000D07340013D002DF7D1D0
:1003B000A322013092009042EFD1DB4322589A42AF
:1003C0000ED1A368002B0BD02E4B9B68AB4209D8F3
:1003D000079800F0C3F800216422080001F048FEED
:1003E00008B070BDE368012B11D12000103000F07F
:1003F00039F90028F4D0206D00F0AEF90028EFD0D4
:10040000666DA36D0193002E04D100F0B8F901359B
:100410005034D9E7802302965B019E4200D90293B3
:10042000029800F073F903900028D9D08022019936
:10043000520102F017F8002817D0EFF3108372B6BC
:10044000F0221206944680210593019B49016344E2
:100450001800049302F068F880220399049852016E
:1004600002F09EF8059B83F3108880225201944687
:10047000029BF61A019B6344C4E7C0469425002002
:100480009025002004FA0320582400202083B8ED92
:10049000FEE7FEE70020704770B5094C094A236863
:1004A00010684B43C018EFF3108572B6F0231B069B
:1004B0002168C01802F038F885F31088002070BD5C
:1004C00040260020702700200A4810B500680A4C1A
:1004D0004843821820688018EFF3108472B6F02227
:1004E000120680181900029A02F05AF884F3108854
:1004F000002010BD402600207027002070B50D00A0
:10050000074918000C68074B6C431968A4180919AF
:10051000049A01F08FFF044B00201D6070BDC0469F
:10052000402600207027002098260020802370B5E8
:10053000074D04002A00056006495B01064801F0EA
:1005400013F823682D185A1C65602260187870BD56
:1005500004E70320442600209C26002010B5034B0E
:1005600001001800FFF798FF10BDC0461C270020AF
:10057000F8B51C4B1C4F18601C4B0D001960160081
:1005800000218022380001F04FFF194C5422002135
:10059000200001F049FF174BE5616360164BA36033
:1005A000164BE360164B236180235B006361A361FC
:1005B000002D04D02900300001F07CFE050010233E
:1005C0006362F033A362E3620E4B380063630E4B49
:1005D0002100A3630D4B2562E36300F0EFFDC043F0
:1005E000C00FF8BD702700209C2600204026002068
:1005F0001C270020410300200D030020DD02002005
:10060000D902002004F9032004F8032004F7032092
:10061000F0B5104B104E99B005000C00009330005F
:1006200001230E4A03A900F0F5FE002802DA00209B
:1006300019B0F0BDA427BF003B002A00300003A979
:1006400000F092FFB842F2D1054B01201B682360F5
:10065000EEE7C046A42500209C260020612400204F
:1006600098260020F0B50027214B87B01F70214E3F
:10067000214D0393214B02000093310001232800F8
:1006800000F0C8FEB8422CDB02233100280005AA86
:1006900000F06AFF022824D13100280001F066F83A
:1006A00002AB1B7B1F2B03D102AB5B7B8B2B02D0DE
:1006B000012007B0F0BD01F08DF98022104C114BE4
:1006C00020001149120227606760A36001F083F9DE
:1006D000200001F0FCFA002805D03100280001F0CC
:1006E00045F80020E5E70123039A1370E0E7C046D0
:1006F000A42A0020442600209C26002098250020C3
:100700000052032071030020046703200D4B70B5D5
:100710001B7805000C4C002B09D12B0022000B4943
:100720000B4800F021FF85420AD1200070BD094826
:100730002D1944618461C56101F05CF90128F4D987
:100740000020F3E7A42A00200457032044260020B9
:100750009C2600200052032070B5802604007601FC
:10076000002C01D1012070BD2500B44200D9350014
:100770002800FFF7CBFF0028F5D0641BF0E7704797
:1007800010B50A68046803000020944208D05B6832
:1007900049688B4204D08C4202D0D01A431E984143
:1007A00010BD02008005801501304142484180188B
:1007B0008005800D043070470200836A2832002BC8
:1007C00003D018688B4201D1106070471A000300F3
:1007D000F5E7F0B58BB0109E0493129B0992F218C6
:1007E000836E0C00DB6905909A4205D8C36E002B1E
:1007F00023D0049A934220D8542040427CE02368BE
:10080000049A129F9A4222D16168A5684D19AE429E
:100810001DD28E4216D3AD1BBD4200D93D00E36808
:10082000711A59182A00119801F004FE119B7619CB
:100830005B191193129B5B1B1293129B002BDED151
:10084000180059E0129B8F1B9F4200D91F00059B87
:1008500030009D6E6B691900039301F02BFD6B68EE
:10086000099A0893129B0691934220D300291ED126
:10087000129B039A93421AD31100380001F01AFD1B
:100880007B1A28000691039300933200119B049970
:10089000089DA84700282FD1039A119B94466344D2
:1008A0001193069BB618129ADB1BD318C4E7049B5E
:1008B0002360069BF31A07936360099B5F1E039BEB
:1008C000FF18BF191900380001F0F4FCEB697F1A1A
:1008D0009F4200D91F00069BAA6A9B1BFF189742E4
:1008E00000D91700A76000972800E368079A0499C9
:1008F000089DA847002882D00BB0F0BDF0B5036872
:1009000086688DB08905040006938F0DBE4200D91C
:100910003E000025136807935368089363680993A2
:10092000AE4206D8A3680020BB4221D0BB42404162
:100930001DE0721B0592082A01D908230593059B27
:10094000069902930AAB0193089B08005B19009378
:10095000079BFFF73EFF00280AD1099B059A59190A
:100960000AA801F07FFD002804D0C043C00F013069
:100970000DB0F0BD059BED18D2E7F0B516000024D0
:100980008BB0059006910793119BA34202D80020DB
:100990000BB0F0BD119B1D1B082D00D90825109B25
:1009A00008AFE31800930699079B0598321B029540
:1009B0000197FFF70EFF0028EAD1129B2A00186862
:1009C000390000F0DDFE129B64191860DCE70000BE
:1009D000F0B51600C26E9BB00F9307000D00336890
:1009E000002A08D09A4203D854235B4205936DE055
:1009F00071688A42F8D90022042412A91292139233
:100A0000019100923900220038000294FFF7E1FEC4
:100A1000031E059001D0543358D10294002413AB27
:100A2000019300947368042239003800FFF7D1FE67
:100A3000139B0590A04246D1129A9B1ADC17E41A28
:100A4000E40FA3009A592A6001225440A20092594F
:100A50000B946A6012AA9B58AB600023EB600233D0
:100A60000A93033B0593B74B14AA11CB11C229007B
:100A7000012004220831404200F082FE00230D9341
:100A80000C930893013B09930023059E1090079354
:100A90000998FFF786FE079BBA6E1B18079304237D
:100AA000029311AB0193079B3900009338002B6828
:100AB000D269FFF78EFE041E0BD02300543300D101
:100AC0001AE1059402E0059B5433BAD005981BB097
:100AD000F0BD0422109811A900F052FE119B099A52
:100AE0001BBA5A401090069211921DD5099B1E0DFB
:100AF000F023DB001E40944BF61873425E41F4B2C3
:100B0000EE68002E00D0F9E02B686A686B600B9BE2
:100B10002A609B0012AA9B58AB600A9B012B00D154
:100B200062E701230A939EE70698FFF73AFEBB6E41
:100B3000DA69079BC3189342E2D8A024E400A446D4
:100B4000F0240799E4000431099106992B68090DF6
:100B50002140614535D10421029118A901910999DB
:100B6000380000913900FFF734FE041EA5D1189A11
:100B7000109B9A4200D0BFE0119B069A1B0DDB0729
:100B80005A40069210A90422F86A00F0F9FDF862B2
:100B90001198FFF706FE079BC018069BE8602B61C3
:100BA000089BAB82149BAB61159BEB610C9BEB75B7
:100BB00001235B4210933300069A059609921E00AA
:100BC00066E710A902910999043801900091380054
:100BD0003900FFF7D2FE041E00D06EE7E023DB00F1
:100BE0009C461C002B68119A0E936346100D04401E
:100BF000184221D1089B1203920D934201D8531C35
:100C000008931199209B0F984B4018400E900F9815
:100C10002A6818420DD1099B189219932398229B98
:100C200018AA9847041E00DA47E7119900284FD107
:100C30000E003300059EBFE78023DB009C4219D1E4
:100C4000089B40B21B189BB240490893404B31406F
:100C50000B439A4203D180231B061E43D1E7731C2A
:100C6000CFD012033303920D9B0D9A42C9D8800254
:100C70008619C6E7C022D200944212D1012208216F
:100C8000099B1040BA6E029114A9019100930C9037
:100C9000390038000E9BD269FFF79BFD041EB0D0CF
:100CA0000BE72C4A4105490D9142AAD10821099B25
:100CB000BA6E029116A901910093390038000E9B7B
:100CC000D269FFF786FD543016D001230D9398E7C3
:100CD0003300214A4B4013420BD00228A9D13203E2
:100CE0000B03920D9B0D9A42A3D3802636060E432A
:100CF0009FE7012676429CE7002401E70023AB75BD
:100D00009C4231D0BC6E3000A16901F0D3FA0029B9
:100D10002AD10D9B002B27D001235B42189318ABDF
:100D20000293169B00960193390038002B68E26904
:100D3000FFF723FE002811D0030054330ED0059096
:100D4000C4E6C0468024002000FBFFFF00FC0F002B
:100D50000000F04FFF05000000FCFF7F189A179B72
:100D60009B1A5A425341AB75E023FC6BDB00220D0A
:100D70001A4240D0380029004030FFF701FD00281A
:100D800039D1059B24031B03A40D9B0DA34218D14D
:100D90008023059A1B061343219A002A07D0A98AAB
:100DA0001A03920D8A4200D90A0021990A80002173
:100DB000AA8A1B039B0D05919A4200D886E602235E
:100DC00013E6059A01320FD1219B002B09D0802117
:100DD000AA8AC900131C8A4201D30F4B1B88219A8F
:100DE000138001235B42E2E7A34204D90B4A059B2F
:100DF000944663440593219A059B002A07D0A98A4B
:100E00001A03920D8A4200D90A0021990A80059A94
:100E1000002A00DB5AE6CAE77024002000FCFFFF2E
:100E2000F8B5C7690D68083F0E000020BD4215D314
:100E30003900280001F03EFA013801F035FA02309D
:100E400080003900281A01F035FA040001F02CFA6C
:100E500080002D1A20006743ED1B3560F8BD0000AF
:100E6000F0B514000D004A6B85B0002B03D0012BA8
:100E70000BD114190ED4436FA3420BD32600944216
:100E80000FD11600300005B0F0BD022B05D0436F26
:100E90009A42F6D916267642F4E7CB6AE418EAD5E8
:100EA000F8E7876E02A938000292FFF7B9FF03A99D
:100EB000019038000394FFF7B3FF019B83420AD1EE
:100EC0006B6C039A934206D8A96C5B189A4202D2C3
:100ED0006C63EA63D6E72B6B5A0307D5DA0202D4B8
:100EE000012252422A64024A13402B636C63C9E711
:100EF000FFFFFBFF10B50C00826AFF21E06801F0E4
:100F000093FA01235B42236010BD0000F0B58DB061
:100F10000793CB68C56B06930B6909920B93130378
:100F20009B0D08932A0DE0231400DB000F000590B1
:100F30001C401A4217D04030FFF722FC041E00D09C
:100F400074E0089B002B0ED0079B2D031B03AD0DF7
:100F50009B0D9D4204D10221494208000DB0F0BD15
:100F60009D4200D2324CE025ED000B9E3000FFF791
:100F700018FC069A031D9342EDD8069B05991B1A8F
:100F80000693042302930BAB0193069B0800009386
:100F900004223B68FFF71DFC011EDED10B9B1BBA30
:100FA00073405B005B080B93089B002B17D0330D3D
:100FB00080221900D2002940914210D1079A111BBA
:100FC00008033203800D920D904208D3194A114054
:100FD000194A0A43B242BED05BB29B021C19079B5E
:100FE000099A1B1B73401A42BFD1B505AB150133DB
:100FF000B1D0149BAD0D9D4200D91D00139B069AE4
:101000000193129B059904339B18029500930800E5
:101010002A003B68FFF7DDFB011E9ED1149B5A1B83
:10102000139B581901F000FAA11996E700249AE7DA
:1010300000FCFFFF00FC0F00000010401FB59C05E6
:10104000A40D0294069C019400240094FFF75EFF17
:1010500004B010BDF0B593B00A9313680E00069368
:101060000A9B08900B92002B02D04D4B0A9A1380DA
:10107000089B4C4C1B6AB361089B5B6AF3614A4D49
:101080000698290001F01BFA069B29001F1838005A
:1010900001F004FA0590012806D13B782E2B0DD1E2
:1010A000059BFB180693EAE7059B022B06D11A0065
:1010B00038003E4901F0D6F90028F1D0059BFB1815
:1010C0001D00069301230793374B0C93374B0D9369
:1010D00028000C9901F0F3F92D1828000C9901F063
:1010E000DDF90990002815D002280DD10222280030
:1010F0000D9901F0B7F9002806D1079B013B079332
:10110000002B04D1AB1CCDE7079B01330793099B50
:10111000ED18DDE73B78002B3BD00B9B1F60230DC8
:10112000022B39D11E4B2403A40D9C420CD032005B
:101130001F4BA40218322343009231001D4A089825
:10114000FFF77CFF041E24DB2F21380001F098F903
:10115000434258410A9B089A404218400FAB0F92F5
:101160000393059A144B119202930092F0233200DC
:10117000019031000898DB0518321097FFF728FC22
:10118000041E06DB002800D079E7F37D002BDBD1BD
:10119000023C200013B0F0BD14246442F9E7C046BD
:1011A000FF03000000FC2F007224002074240020A4
:1011B0000800002000FC0F7041070020F0B504007B
:1011C0000B6A0800E3664B6B99B0A166E360002BE5
:1011D00003D08B6B002B02D1E3610C20B1E0E36103
:1011E0002100FFF787FE2100A06E1031FFF782FE7D
:1011F000A16ECB6B002B01D16366EEE763660B6CCF
:10120000002B4FD023674B6C002B00D1774B6367CB
:10121000886C002800D17648A0670B6DE3675A1CE4
:1012200042D10023E3670125002620006D423100F2
:101230000C22A662E662256265623C3001F0F4F899
:10124000200031000C22303001F0EEF82000310097
:101250000C22483001F0E8F831001C2210A801F0FF
:10126000E3F801231E00179305950493169B5A1C5F
:1012700003D0179A511C00D0AFE0226BD30F9B18FC
:1012800023632200230030323C3323CA23C3E56E9C
:10129000E06A290001F00EF800206165A065E065B4
:1012A00025668DE0FF23ADE7002BBCD1CA6C8B6AAD
:1012B000002A07D0D208834200D903009342B1D953
:1012C0001300AFE7CA69F5E7AB4203D10599914234
:1012D00000D189E004998E4204D1710015000026E6
:1012E0000491059307AB0393424B434A02930023B7
:1012F000089208220193414B099200932000404B31
:1013000016AA10A901360794FFF762FB002857DBE5
:1013100049D080058015013045D0109B0AAF23626B
:10132000119B20006362364A364B009710A9FFF7E5
:1013300085FE002844DB0A9B99B21B0C022B02D0CD
:10134000162040423CE00129FAD8236B2E4A134074
:1013500001224A40520213432363FB68002B03D04F
:10136000226F9342ECD823670E9B002B03D0626F51
:101370009342E5D863670F9B002B08D0A26F93427E
:10138000DED8E26FA3679A4200D91A00E267A36E23
:101390000C9A196A002901D09142D1D1E266DB6929
:1013A0000B9A9A42CCD10AAF2000184B184A0097EA
:1013B00010A9FFF743FE002804DA831C00D155E78B
:1013C00019B0F0BD2300210030333C311A6801CF41
:1013D000424004C38B42F9D148E70599994200D0B5
:1013E00072E7AA4200D075E75420AAE7FFFFFF7F0B
:1013F000FE03000041070020772400200800F00FC2
:1014000000FCFF7F18001020FFFDFFFF0C00F07FA5
:101410000000F07FF0B50B630B00002787B005924A
:1014200008330C9A02930A654F63CF63CF640B1D98
:101430000C0005AA02990600FFF70CFE0500B84251
:101440002CDB0123A371B36A15252360030DB4625D
:101450000393012B54D1A2883D4B920213432200E7
:101460002832009230003B4A0299FFF7E7FD051E43
:101470001FDB236D9A68974220D31B68E364002B1F
:101480003DD02100B06E4031FFF734FD324A2B0DC4
:10149000934237D00025280007B0F0BD831C08D147
:1014A0002E4BA2889A4204D00123A371B36A236011
:1014B000B46221003000FFF77FF9ECE7226B03995B
:1014C0000A4201D10137D4E70C21C02079435A6880
:1014D000A388521891689B020B43117880005268D0
:1014E000091809050B43009230001D4A0299FFF7C5
:1014F000A5FD0028E6DA831CE4D00500D9E70C2519
:101500006D42D6E78023216B5B030B4323630023EB
:1015100002226364B36EAD059B6A5242AD0DA262B6
:10152000E5622264A364B5D0A2880E4992028B4280
:1015300000D90B001A4380239B051343E26C300053
:1015400000920299034AFFF779FD051EA2DAB0E77F
:101550000800002000FC0F7001020000FF030000E3
:1015600000FCFF7FFE030000F0B597B00C000A926C
:101570004A6BC96A059000208A4200D3DEE08A1ACD
:1015800008929A4200D90893089B0693069B002B69
:1015900001D10898D2E0059A236B956E8022D20281
:1015A000134203D0E16BEA69914213D180214903D0
:1015B000626B0B4271D1A16AE36A13911492002B02
:1015C00037D101225242A263E3638022236BD2020D
:1015D00013432363059BE66B9B6EDB6909939F1B9B
:1015E000069B9F4200D91F008022236B52031342A7
:1015F00000D1A5E0230008331093A388594A9B0229
:101600001A431192099AF3199A4200D2A7E00A9B51
:1016100007970C93079B002B44D1636BDB19636323
:10162000E36BDB19E3630A9BDB190A93069BDB1B65
:10163000ABE72200013B403215A92800099215931F
:10164000FFF7EEFB14A906002800FFF7E9FB0700EF
:10165000139B0793B74202D3A363149BB4E7F01B19
:1016600000F016FE0500300000F018FE1F235D1B81
:10167000854200D905000423029313AB0193AB000C
:1016800000930422079B09990598FFF7A2F8002808
:1016900054D10123AB40F61ADAE702235B42A3637D
:1016A000E26392E7E36C0F93236C02331AD1616C0F
:1016B000A56C4D19B54215D9B14213D8079BAD1B86
:1016C0009D4200D91D000F9B711A59182A000C98D1
:1016D00000F0B0FE0C9B76195B190C93079B5B1B0B
:1016E000079397E702235B422364059B30009B6EC0
:1016F0000D935B6919000B9300F0DCFD731A0B9AD4
:101700000E936364099B11009D18013DAD192800DB
:1017100000F0D0FD0D9B6D1A9B6A9D4200D91D0003
:101720000F9BA56401930E9B0F4A00931099119B88
:1017300005980295FFF7EAFB0028B3DA17B0F0BD71
:1017400021000A9B029701930096A36B099A0598C2
:101750004031FFF73EF8002800D15EE7EEE7542065
:101760004042EBE70000102000FCF7FF002310B51B
:101770001A00FFF775FB002800DD002010BD0000F7
:1017800070B50F250A4C8A18914200D170BD0B78B4
:10179000060958402840800000591B094640734004
:1017A0002B409B001B59300958400131ECE7C046E3
:1017B00088240020F0B50D0016000021202289B0F9
:1017C000040000F031FE2B00A81998420ED100232E
:1017D0001A00238069465A52E15A02335218202BCC
:1017E000F8D10022B24208D109B0F0BD1A78013315
:1017F0005200A15A0131A152E7E7A95C002908D0A3
:101800006B466F4649005B5A581C10335B00785298
:101810001A530132E6E70368426810B5934203D2D7
:101820005A1C0260187810BD8368841D002B07D0F5
:10183000E27F002A04D19847002801DBC0B2F2E71A
:1018400001230020E377EEE7036910B55A1E040078
:101850000261002B04D1FFF7DEFF0723E060236164
:10186000E0684308E3600123184010BDF7B5002687
:1018700015000190B14204D0012427008F40BC42E2
:1018800001D3A819FEBD0198FFF7DEFF002800D0A4
:1018900036196400F3E7F7B500250B000E002C00A5
:1018A000203301908F1C00930198FFF7CDFF009B20
:1018B0006D0028189F420BD03D8802372B19451B1D
:1018C00004D5241810346400A05BFEBD1C00EBE7B7
:1018D00003204042F9E70000F0B5D7B0059202229C
:1018E0000291FF3205210500FFF7C0FF012205210B
:1018F00001902800FFF7BAFF04220390110028008E
:10190000FFF7B4FF13220600002106A800F08CFDAB
:101910000024B4421BD11322029806A9FFF74AFF04
:10192000039A00249446019B63440493049B9C42C5
:1019300018D3019A029806A9FFF73CFF019906AB5C
:101940000598039AC918FFF735FF00201AE0002216
:1019500003212800FFF78AFF1D4B06AA1B5D0134F7
:10196000D054D6E728000299FFF795FF002809DB3D
:10197000112826D0122828D010281DD1002C03D1E0
:101980000320404257B0F0BDA0235B0006AAE31835
:101990009B1802210322423BFF3B1F782800FFF7E0
:1019A00065FF049B261802009E42E9D806AB390069
:1019B000E01800F039FD02E006AB661C1855340053
:1019C000B4E7032211000027E8E70B220721FAE71A
:1019D000C82400207047002310B5841DE37701243C
:1019E00064420361C3628462C2638163036403630C
:1019F00010BD0000F8B50400A36A013375D12000C2
:101A0000A56AFFF721FF0022E06202212000FFF714
:101A10002DFFA062012871D1012D00D1B8E0210075
:101A200000230831A21DD38702318B87CB87023177
:101A3000CB870231CB8740310B804B8023001821AC
:101A400052331980803159802839998021008023B0
:101A5000183064315B00FF300B8001339BB20231E0
:101A60008342F9D1200000239430590043520133BE
:101A7000902BFAD1D7218C204900400050521A20D7
:101A80000231FF3050520231013050521C200231DD
:101A9000FF3050520231013050521E200231FF30CF
:101AA000505202310130505220200231FF3050524A
:101AB0002200C532FF32BC39138001339BB202329F
:101AC0008B42F9D1A922002320219200A352A2180F
:101AD000518153809380D3801381B1229200A11849
:101AE0005A008B520133202BFAD1A36A002B12D05B
:101AF000013B012B4CD9032040420BE00228F4D1DA
:101B0000A92321009B002000E2184431FFF7E4FEE6
:101B10000028EAD0F8BD266B002E18D12000FFF770
:101B20007AFE07002000FFF776FE05022000FFF78F
:101B300072FEED1907002000FFF76DFE534B000207
:101B4000C01943409D42D6D1013525632661236BE0
:101B5000013B2363002B00D18FE02000FFF75BFEE9
:101B6000A3695A1CA2611870A26B002A09D0236CC9
:101B7000591C2164D054226CE36B9A4201D100239A
:101B80002364A269E3699A4200D235E70020C1E7E5
:101B9000236B002B3BD1210020004431FFF77BFE5B
:101BA000A31DDB7F002BA6D1FF2804DCA369C0B2F4
:101BB0005A1CA261D7E780235B0098425DD00238AF
:101BC000FF381C2897DC324B4200D25A314B195C4B
:101BD0002000FFF74BFEA9239B002063E1182000A3
:101BE000FFF759FE1D2800DD85E72B4B4200D25A36
:101BF0002A4B195C2000FFF739FEA36B002B2DD078
:101C0000E26B90423FD8236C1B1A24D46363A16B10
:101C1000A369626B00292AD0581CA0618A5C1A70E3
:101C2000A36B002B0BD0226C616B501C2064595CA1
:101C30009954226CE36B9A4201D100232364636BB5
:101C4000E26B01336363934201D100236363236B2F
:101C5000013B236395E7D2186263D8E7A369626901
:101C60009B1A984200D946E740426063CFE79A5CEE
:101C70001A70A3690133A361E9E7E36A002B00D17D
:101C8000BDE6012046E7052036E7C046FFFF00001D
:101C90003625002072250020DC2400201825002095
:101CA00070B505000C00002C00D170BD2800FFF7B6
:101CB000B2FD013CF7E770B50400FFF7ACFD05008D
:101CC0002000FFF7A8FD0002284380B270BD70B568
:101CD0000400FFF7A0FD1F2802D00320404270BD82
:101CE0002000FFF798FD8B28F7D12000FFF793FD28
:101CF0000828F2D12000FFF78EFD05001F28ECD840
:101D000006212000FFF7CCFF6B0706D52000FFF768
:101D1000D2FF01002000FFF7C3FF2B0704D52000EE
:101D2000FFF779FD0028FAD1EB0604D52000FFF774
:101D300072FD0028FAD10226354202D02000FFF7BA
:101D4000BAFF631DDE7701235B4200202362C6E7F2
:101D5000054B064A1360064A136053609360D360D4
:101D600013615361936170478080808000E400E0DC
:101D700004E400E0044A1078431CDBB2172B00D9BE
:101D8000102313707047C046B02500200021044B7B
:101D9000044ABFF35F8F02C39342FAD17047C04633
:101DA000000100D0800100D0024BC91889000160F9
:101DB0007047C0464000003410B50400FFF7DAFF5A
:101DC00001002000FFF7F0FFFF232371BFF35F8FB7
:101DD00010BD10B50400FFF7CDFF01002000FFF794
:101DE000E3FFFF23A380BFF35F8F10BD10B508484A
:101DF000084B984200D310BD040003680834002B40
:101E000003D0FFF7E6FF2000F2E7FFF7D5FFFAE780
:101E1000E0250020E8250020142310B501001888D3
:101E200004331B88984710BD162310B5010018888D
:101E300002331B88984710BDF8B50E000400002738
:101E40000125B74201D12800F8BD2068FFF7E4FF63
:101E500001C4431E9841404205400137F1E70000AC
:101E6000F7B50C24444301932A4B0092E4186368AD
:101E7000089A05000E00934200D26260C0232F1F13
:101E80009B01FFB2E318012F1BD8012E19D10322A9
:101E90001A60A3683342FCD0009B22685B01534068
:101EA000E022134080225201A2181360032123680C
:101EB00073400B4013600123B340A2681342FCD06F
:101EC0001BE0802212011A60134BAA00D15800298E
:101ED00007D0586900F0EEF9431C0320584303383B
:101EE000FDD2009B22685B015340E0221340802218
:101EF0005201A2181360012FD8D9802380229B01A0
:101F0000E31812011A60089B019A6360024BAD004E
:101F1000EA50F7BD0080004074280020F7B50500A6
:101F20000E0018000899170000F0C4F9089A030081
:101F3000140231003A0028000094FFF791FFF7BD2A
:101F400013B5802464000094FFF78AFF13BD0000DE
:101F5000014B8000C058704774280020F8B5040079
:101F60001F4817001E000D0000F0A4F90100380002
:101F700000F0A0F9069A3304120313432268002AE2
:101F80000FDA3F2122680A40AA420AD1A26812054C
:101F9000120D824205D1EE21E268C9020A409A423E
:101FA0001CD0104A104EA1184A42514101220C3156
:101FB0008A400E490A600E490A60170031688F4353
:101FC000391EFAD10B4A2131A2182560A060116098
:101FD00021680029FCDAE36008231360F8BDC046DD
:101FE000001BB7000040FDBF08C0004000E00040FB
:101FF00000F0004004300000024B1A68024B5A60A7
:102000007047C0469C2800200080054003008020C7
:10201000114AC00510B5114C106011480460E02051
:10202000104CC004002906D02060002B05D180236D
:102030001B06236010BD1060F7E7FA20C00058436C
:102040008023094A5B04984200D308481060FFF7D8
:10205000D3FF8023DB05ECE700B00540FCFF010067
:102060000820014000A005409C280020FFFFFF0041
:1020700070B50400100080220A4BD2051A600A4B8A
:10208000002C0CD00125094A2C43DA61084A624031
:102090001A6259629C620021FFF7B8FF70BDDC61D3
:1020A000F9E7C04600B0054000800540D3C007B046
:1020B0002D3FF84F8023024A9B000B43D3627047A9
:1020C00000800540AA22064B12011A602132FF321D
:1020D000DA600449044A11605A68002AFCDA704741
:1020E0000040024000B0FA0000600240704700006B
:1020F00010B5044C044B9C4200D310BD08CC98474B
:10210000F8E7C046E825002020260020054B064AB7
:1021100006491A60064B074A136018000A68904384
:10212000FBD1704700E00040BFCDFBFE08C000407F
:10213000FE7F3C0000F00040044BDB6C002B03D121
:102140008022034BD2021A607047C0460000115033
:102150004C201150044A054B1A60054A1368DB01F4
:102160008033FBD17047C046FFFFFF0100F0004005
:1021700008C000404022034B9A675A671A67DA6624
:102180007047C04600F0014010B5FFF7FFFD10BDDD
:1021900070B5044D044CA968C022200000F04AF933
:1021A000AC6070BD00ED00E000000020002373B5BE
:1021B000284DAB67FFF786FF0122274B1A606B6C37
:1021C000012BFCD10322254B1A60AC6B012CFCD1F6
:1021D00002260525210000960623214A2148FFF703
:1021E000BDFE2B00210000951F4A2048FFF7B6FED8
:1021F0003100002204201E4BFFF7A2FE2800210020
:1022000000221C4BFFF79CFE0022072011001A4BF6
:10221000FFF796FE002208201100174BFFF790FEF3
:1022200080230022DB00110000930920124BFFF7EE
:1022300075FE00220F4B11000620FFF781FE0420DF
:10224000FFF786FE0D4900F035F801000020FFF78A
:1022500031FF73BD008000403CB0004030B0004012
:10226000002F685900800240008C864700C0024061
:10227000001BB70040597307006CDC0240420F009E
:1022800001480421014B1847C02500207D1C002077
:10229000014B5B6818470000C0250020014B9B687C
:1022A00018470000C0250020014B1B68184700009C
:1022B000C0250020114A936F9B0813D21066516607
:1022C000002905D0FFE7FFE7FFE7516F106F704768
:1022D00004B5002801D00020C04300F0C1F800215F
:1022E00004BDC046F0B5146E556E576F166FFFF7FC
:1022F000E5FF1466556657671667F0BD000000D00D
:10230000132370B51C78114D012C0ED100231049F8
:102310009A000133A950202BFAD10D4BAB640D4824
:10232000FFF77AFD0C4B186070BD012CF5DD0B48F2
:10233000FFF77AFD06000A48FFF776FD802231009C
:10234000280000F077F8022CE9D1E6E7A028002069
:10235000A92100204C330000A02900205344000094
:102360005346000007B5604601880A0A0230DF2A9A
:10237000FAD1C9B2820804D302884088000410430D
:1023800000E00068014A5050039007BDA0280020DB
:10239000132310B510481C78FFF746FD0100012CEF
:1023A00013D10E4C5422200000F044F815230C4A9F
:1023B000990001336250202BFAD12262E261094870
:1023C000FFF72AFD084B186010BD012CF7DD8022B5
:1023D000024800F02FF8F2E753460000A42900203D
:1023E000312200204C330000A029002007B56046B0
:1023F00001880A0A0230DF2AFAD1C9B2820804D35E
:10240000028840880004104300E00068014A5050F0
:10241000039007BDA429002001480421014B18475F
:10242000D02500207D1C0020014B1B6818470000B0
:10243000D0250020014B5B6818470000D025002004
:1024400010B5FFF755FE044C044B9C4200D310BD61
:1024500008CC9847F8E7C046202600202426002014
:102460007047C04630B500240139A24201D1002096
:1024700005E0035D01340D5DAB42F6D0581B30BD65
:10248000C9B20378002B04D08B4200D170470130D1
:10249000F7E74B42594149420840F7E7030030B59E
:1024A0001C78002C09D1181A30BDA542FBD001328E
:1024B0001578002DF9D10133F2E70A00F8E703009F
:1024C00030B51C78002C07D00A0002E0A54205D0E8
:1024D00001321578002DF9D1181A30BD0133F0E71B
:1024E000F8B5C046084A10B51378002B0AD18023EE
:1024F000064807495B051C68C45004338B42FAD177
:102500000123137010BDC046A52A002074270010B7
:102510000001001010B5014B984710BD7527002031
:102520008023F0B5421807000C0085B05B049A4286
:1025300001D9FDF7AAFF1426182530882B881249E7
:1025400098472B8803901149308898472B88029030
:102550000F49308898472B880E490190308898475A
:102560000500FFF7BFFF039B9847029B9847802217
:102570002100D82338005202019CA047A847FFF74A
:10258000C9FF05B0F0BDC0464946000045580000EF
:1025900052450000464300008023F0B5170085B087
:1025A0008218040003915B049A4201D9FDF76DFF84
:1025B0001426182530882B88104998472B880290BC
:1025C0000F49308898472B8801900E4930889847EA
:1025D0002B880D490090308898470500FFF782FF4F
:1025E000029B9847019B98473A0020000399009B63
:1025F0009847A847FFF78EFF05B0F0BD4946000099
:102600004558000052500000464300005069636F77
:10261000204F5441006F7461636F6D6D616E642E65
:1026200062696E00FF032F002E2E006C6974746CBB
:1026300065667300FFFFFFFFFFFFFFFF0000000064
:102640006410B71DC8206E3BAC30D9269041DC76B3
:10265000F4516B6B5861B24D3C7105502083B8ED5D
:1026600044930FF0E8A3D6D68CB361CBB0C2649B81
:10267000D4D2D38678E20AA01CF2BDBD101112009C
:10268000080709060A050B040C030D020E010F00D2
:1026900001000200030004000500070009000D000E
:1026A0001100190021003100410061008100C100CA
:1026B0000101810101020103010401060108010C6D
:1026C00001100118012001300140016000000000EC
:1026D00001010202030304040505060607070808B2
:1026E00009090A0A0B0B0C0C0D0D03000400050070
:1026F00006000700080009000A000B000D000F008B
:102700001100130017001B001F0023002B003300D3
:102710003B0043005300630073008300A300C30029
:10272000E3000201000000000000000000000101C1
:102730000101020202020303030304040404050569
:1027400005050000F42F0010F02F001000500320AA
:102750000000000000000000005103200000000005
:102760000000000010000000000000000000000059
:1027700000000000503300004C33000054330000D0
:10278000523300004D5300004D430000533400000D
:10279000433400000000000000000000511F002032
:1027A0007D1F0020C52000205D2200204521002043
:1027B000D5210020F11F0020991F0020B91F002003
:1027C000CD1F0020311C0020D51F0020311F00200C
:0827D000951B002039010020D7
:1027D80000000000000000000000000000000000F1
:1027E80000000000000000000000000000000000E1
:1027F80000000000000000000000000000000000D1
:1028080000000000000000000000000000000000C0
:102FE800000000000000000000F00F1000F01F10AB
:082FF80000F01F1000F00F00B3
:1030000000200420E3300010C3300010C530001051
:10301000C1300010C1300010C1300010C1300010AC
:10302000C1300010C1300010C1300010C730001096
:10303000C1300010C1300010C9300010CB3000107A
:10304000CD300010CD300010CD300010CD3000104C
:10305000CD300010CD300010CD300010CD3000103C
:10306000CD300010CD300010CD300010CD3000102C
:10307000CD300010CD300010CD300010CD3000101C
:10308000CD300010CD300010CD300010CD3000100C
:10309000CD300010CD300010CD300010CD300010FC
:1030A000CD300010CD300010CD300010CD300010EC
:1030B000CD300010CD300010CD300010CD300010DC
:1030C00000BE00BE00BE00BE00BE00BEEFF3058025
:1030D000103800BE1E481F49086006C881F30888E2
:1030E00010471D480068002801D01948F3E70DA4D7
:1030F0000ECC002902D000F012F8F9E71749184A5F
:10310000002000E001C19142FCD1164988471649D0
:1031100088471649884700BEFDE701C901C29A42A7
:10312000FBD3704700390410C000002044E20020A7
:10313000841A05100000042000000420841A0510E1
:103140000010042000100420000000007047000060
:103150000000000008ED00E0000000D044E2002084
:10316000DC5A022071BA0310CDBA021021300310CC
:10317000F8B5C0460448054B10B5834203D0044B54
:10318000002B00D0984710BD44E2002044E200200C
:103190000000000006480749091A8B10C90FC9181A
:1031A00010B5491003D0044B002B00D0984710BD38
:1031B00044E2002044E200200000000010B5074C6B
:1031C0002378002B09D1FFF7D5FF054B002B02D048
:1031D000044800E000BF0123237010BDB8030120A4
:1031E000000000003CBD0310054B10B5002B03D0C0
:1031F0000449054800E000BFFFF7CCFF10BDC04602
:1032000000000000BC0301203CBD0310012800D0D9
:103210007047054B9942FBD1044B054A1A600022C6
:103220001A7101325A71F3E7FFFF0000680A0120AA
:1032300000093D0010B50A4C1121200027F048F884
:103240001021200027F080F8E12123681B6A054A3D
:10325000490220009847012028F0C4FA10BDC0465A
:10326000680501201304000010B502490120FFF792
:10327000CDFF10BDFFFF000070B506000D1C081C3F
:103280002CF0B0FD84B2002C12D020002CF051FDA7
:10329000011C281C2CF0D5FC8721C9052CF0EBFC67
:1032A0002CF0A0FDC3B21B0224041C43346070BD8B
:1032B0000023F8E770B504000D00102200212CF067
:1032C000F5FE80235B022360F8235B0263608023AA
:1032D000DB02A360C0231B03A3602B000933ED01B5
:1032E0001B031D43656080239B05E360024B1D406B
:1032F0006560200070BDC046FFFFFF9F10B50A4B00
:103300001A6B0A4B1A600A4A1268802111631A6804
:10331000084B1A60084C20687F390FF0E7FA2068E4
:1033200000210FF0E3FA10BD00002050AC55012041
:10333000800E00203030205014130120F0B5DE46FE
:1033400057464E46C0B586B004000E0092469946D8
:10335000110002A8FFF7AEFF059A1F27BA43129B80
:103360003B401A4305923C49114080235B031943BB
:1033700005913A490A401343129A5201F8218900F3
:103380000A4013430593364919408022D204114361
:10339000059134490B401A43119B9B02F821C90146
:1033A0000B401A430592049A2F4B1A4080239B022C
:1033B00013434A465206F82189050A4013430493F1
:1033C0000E9902A8FFF758FF01239B460093013393
:1033D000129A310020002AF065FF244BE5182D0DCC
:1033E000EDB20635EDB22900129829F033FC290020
:1033F000119829F02FFCF3B20833DBB25A469A40F9
:103400001B4BE3181A605D46B54025630121072078
:1034100029F0F6FC02AB5246310020002AF092FF60
:103420004B46991E39401348084372009319DB003C
:10343000E318D8331860104B0B439219D200A2182E
:10344000D832136023682B43236006B0E0BCBB4630
:10345000B246A946F0BDC046FFFF0FFC1FFC0FFCA3
:10346000FFFFFFE3FF83FFE3FFFFF5C10000E0AFD5
:103470002C21000020E0000040E0000010B50128F1
:1034800000D010BD084B9942FBD1084B084A1A6086
:1034900000221A7101215971064B18682AF0ACFEFE
:1034A000054B1860EDE7C046FFFF0000700A0120E1
:1034B00000093D00800E0020904E022010B586B01D
:1034C00010498022072029F0EBFC0121072029F078
:1034D00097FC0D490D4C20682AF0CAFE02000C4BE7
:1034E000196820680E230493013303930E3B029363
:1034F000002301938423DB0500930823FFF71EFFBD
:1035000006B010BDFD32001068BD0310800E002013
:10351000904E022010B50F4C20605001FF22024057
:1035200048001E2101400A431100012B0ED00C0659
:10353000322028F05EF9084B1A68084B1B680433E8
:103540009B009C50502028F054F910BD01211143DC
:10355000EDE7C04614130120800E0020904E02209B
:10356000F8B506000F00002503E03B00FFF7D2FF8F
:103570000135032D28DC154C7201921B52190232C1
:103580009200A4186068431CF2D0114B18600F4AD7
:1035900073019B1B5B190C339B00D2185268531CA0
:1035A00009D00A4973019B1B5B1906339B00C9189C
:1035B00049684B1CD9D1074B1B78002BD8D0064942
:1035C000064827F077FBD3E7F8BDC046D488012032
:1035D00014130120C75A022040BD031054050120D6
:1035E000F8B5CE46474680B5002645E0364F750112
:1035F000AD1B4544AB1C9B00FB1858680CF0A6FDA6
:103600003249334C200027F055FB0A224146200066
:1036100027F0F5FB2F4B99461900200027F04AFBB5
:10362000AB1D9B00FB1859680A22200027F0E7FB1E
:103630002949200027F03EFB0A224146200027F0BE
:10364000DEFB4946200027F035FB0C35AD007F1925
:1036500079680A22200027F0D2FB2049200027F0B9
:103660005BFB01239C46E0444346032BBEDD1C4923
:10367000174827F01FFB01361A4B1B68B3421FDDAA
:1036800001213000FFF76CFF174B1B78002BF2D0A5
:1036900016490F4C200027F00DFB0A2231002000B4
:1036A00027F0ADFB1249200027F004FB30000BF09F
:1036B00007FB1049200027F0FDFA00239846D3E7C6
:1036C000C0BCB946B046F8BDD488012050BD031037
:1036D0005405012058BD03105CBD031064BD0310E8
:1036E00030C8031068860120C75A022044BD031069
:1036F00088DA03104CBD031010B502490120FFF712
:10370000BDFE10BDFFFF0000012800D07047054B33
:103710009942FBD1044B054A1A6000221A7101320A
:103720005A71F3E7FFFF0000780A012000093D000D
:1037300010B53C2028F05DF828F074F8040005E08E
:1037400028F070F8001B094B984208D8084B1B78EA
:10375000002BF5D1074B1B68002BF1D104E0044B83
:1037600000221A70034B1A6010BDC04640420F0081
:10377000C15A0220AC41022010B5FFF7D9FF0AF070
:10378000C1FE0C4B1868002101F01EFF0AF01CFE60
:103790000EF0DEFC04F07EFB074B01221A70074B93
:1037A000012149421960064B1A600FF0B9F8FFF782
:1037B000BFFF10BD786E0120840E0020BC420220A5
:1037C000AC41022010B5FFF7B3FF0AF09BFE0C4B93
:1037D0001868012101F0F8FE0AF0F6FD0EF0B8FCC1
:1037E00004F058FB074B01221A70074B0121494294
:1037F0001960064B1A600FF093F8FFF799FF10BDA0
:10380000786E0120840E0020BC420220AC410220D0
:1038100070B50500FFF78CFF0AF074FE094B1868BD
:10382000012101F0D1FE084C012323700AF0CCFDE8
:103830000EF08EFC00232370044B1D60FFF778FF11
:1038400070BDC046786E0120C05A0220AC410220F3
:1038500070B504000D00142200212CF027FC002D6F
:1038600035DD2B00463B362B12D9013D00262CE0DE
:103870000133222B0EDC174AD9008A58AA42F7D10D
:10388000144A52189188144818F000FE20601EE077
:103890000023EEE7114B0A2229001D00180027F033
:1038A000AEFA0F49280027F005FA21680A222800FD
:1038B00027F0DBFA0BE0A9006918891989B20648DC
:1038C00018F0E4FDB300E0500136042EF3DD2000D3
:1038D00070BDC046A0BE0310D05501205405012084
:1038E00034C1031084B030B585B0050009910A9247
:1038F0000B93431E7C2B33D8453B362B02D9013D1D
:1039000000242BE0080004F0ABFA03AB18700204AB
:10391000120E5A700002000E98700023222B1FDC3A
:10392000124AD9008A58AA4201D00133F6E70F4A59
:10393000511803AC6378227889880D48A4780094E4
:1039400018F04AFD0CE0A20009ABD258A900691892
:10395000091989B2064818F064FD0134042CF2DD1F
:1039600005B030BC08BC04B01847C046A0BE031068
:10397000D055012070B504003C281DDD0300463BF6
:10398000322B00D973E000220B2A33DC394B1100B3
:103990004D31FF3149005B1806215B5EA3422BD0FD
:1039A000344B11007531FF3149005B1806215B5E15
:1039B000A34223D00132E7E7002803DC012070BDD9
:1039C00087350FE00025032D0BDC2A1D294B9B18A2
:1039D000294A944663441B785BB20133F0D0013529
:1039E000F1E787252B00743B162B09D89B00234A4F
:1039F000D3589F468725F5E77525F3E77425F1E74A
:103A000014261F4B1A6801232900200001F010FC26
:103A10000120FFF7FDFEF6B20221300028F0F0F998
:103A20001E2027F0E6FE300028F094FA0600FFF78B
:103A30007FFE012E12D0124B1A68012329002000AC
:103A400001F028F90020BAE71626DAE71726D8E7AA
:103A50000126D6E70026D4E71526D2E7084B1A68D8
:103A600001232900200001F015F90120A7E701201A
:103A7000A5E7C046842300207503000084BD031021
:103A8000786E0120F0B583B004000D001600022806
:103A90003ED003283ED0012803D00024201C03B0D0
:103AA000F0BD6F27FFF744FE314B1A680123390040
:103AB000280001F0BDFB0120FFF7AAFE6F2F2BD0DD
:103AC000042120000EF0CAFF2BF036F90022294B0A
:103AD0002BF0BBF82BF0BCF98221C9052CF0B1F812
:103AE000041C002E34D0201C2CF088F9224A234BD1
:103AF000009001912BF0F4F8002823D01E4A204BAF
:103B0000009801992BF002F9002814D100261AE040
:103B10007027C7E77127C5E7042120000EF09EFF3C
:103B200032382BF009F90022164B2BF08EF82BF0CF
:103B30008FF9041CD5E72800FFF71CFF002805D1EA
:103B4000002600E00026FFF7F3FD02E00126FAE779
:103B50000026074B1A6801233900280001F09AF863
:103B60000120FFF755FE012E98D19F24E40595E72B
:103B7000786E01200000703F9A9999999999E93FD0
:103B80009999E9BF0000543F10B502490120FFF7A1
:103B9000BBFD10BDFFFF000070B50400431C21D029
:103BA0004349444827F086F8631C25D04249414DDB
:103BB000280027F07FF80A2221003039280027F05A
:103BC0001EF93B493B4D280027F074F83B4928007B
:103BD00027F070F83A49280027F06CF8631C49D1A7
:103BE000002414E0334826F055FE0028D8DD314883
:103BF00026F074FE0400D3E732492E4827F05AF825
:103C0000DFE731492B4827F055F810E00134072C45
:103C10004CDC2E49274D280027F04CF80A222100C1
:103C2000280027F0ECF82A4B1B68A342E9D0294969
:103C3000204D280027F03EF80A222100280027F016
:103C4000DEF82549280027F035F80021200001F092
:103C500073FD0028DADD2149164D280027F02AF8E7
:103C600000220021200001F0BDFD1149280027F0AD
:103C700021F8CBE717490F4D280027F01BF8303CFF
:103C80000A222100280027F0BAF81349280027F05B
:103C900011F81249280027F00DF800220021200019
:103CA00001F0A0FD0E49280027F004F870BDC046C1
:103CB00030C8031054050120ECBD0310F8BD0310FB
:103CC00038BE0310E0BD031064BE03105CBE0310D9
:103CD000786E012080BE031090BE031098BE0310C2
:103CE00058BE0310002070477047000010B50160F7
:103CF0004160002909D08A188260C26000230374E1
:103D0000890704D1920708D110BD0A00F4E7064BD9
:103D1000064A07482D212FF003F9064B034A0448B1
:103D20002E212FF0FDF8C046B8BF0310CCBF031002
:103D300014C0031058C0031010B504004368013BC1
:103D40004360002B0BD103689B689847A368013B35
:103D5000A360002B03D12368DB682000984710BDC7
:103D600010B504000E4B0360002343600D4B03604D
:103D7000FA239B0083600C4B03600B6803614B6864
:103D80004361002B02D05968013159600023A361BF
:103D9000E3612362626227F035FDE060200010BD20
:103DA0006C280410F4C80310A026041010B50400F9
:103DB000064B0360006A002801D0FFF7BDFF606971
:103DC000002801D0FFF7B8FF200010BDA026041086
:103DD000F0B5CE46474680B58DB08046894601286D
:103DE0000BD04346002B03D1574B994500D18BE0B4
:103DF0000DB0C0BCB946B046F0BD534B9942F0D1AE
:103E0000524B534A1A6000251D7101265E71514CB8
:103E10002021200019F0B5FA431E98414E4B18702E
:103E20002121200019F0ADFA431E98414B4B187028
:103E30004B4C4C4A4C48029601954C4B0093230046
:103E40004B4914F0D7FE4B4A4B48029601954B4B19
:103E5000009323004A4914F0CDFEFA2249494A4C06
:103E600052012000FFF742FF2023E554FD36474F63
:103E700009E03B49280027F0E4F9013C0C35002C0F
:103E8000F7DA013E3C37002E02DB3D000424F6E762
:103E90000022049205923E4804A9FFF761FF0598AD
:103EA000002801D0FFF748FF002206920792394808
:103EB00006A9FFF755FF0798002801D0FFF73CFF40
:103EC000002208920992344808A9FFF749FF09988F
:103ED000002801D0FFF730FF00220A920B922F48F2
:103EE0000AA9FFF73DFF0B98002801D0FFF724FF38
:103EF00081242B4D05E01A49280027F0A2F9013C46
:103F00000C35002CF7DA6CE7264C254B9C4204D08C
:103F10000C3C200027F03FF9F7E72048FFF746FF69
:103F20001D48FFF743FF1B48FFF740FF1848FFF706
:103F30003DFF1D4C154B9C4200D159E70C3C200025
:103F400027F029F9F6E7C046FFFF0000800A0120AC
:103F500000093D0034040120C25A0220C35A022045
:103F600048EC03102C7B0120007B01206CC0031067
:103F700079050000C04E0220944E02207CC0031040
:103F80002103000078E4002050E4002050130120B9
:103F9000887A012060590220B07A0120246D012026
:103FA0006C480220844E0220144F0120F0B5D64602
:103FB0004F464646C0B56C4814F04AFD6B4B1B7823
:103FC000002B00D0C5E06A4D6A49674C2A002000EA
:103FD00015F088FE68492A00200015F083FE674B23
:103FE000674998461A00200015F07CFE654F664927
:103FF0003A00200015F076FE644E6549320020003C
:1040000015F070FE634D64492A00200015F06AFE29
:1040100062493200200015F065FE61492A00200047
:1040200015F060FE5F4E60493200200015F05AFE28
:104030005E4D5F492A00200015F054FE5D493200B4
:10404000200015F04FFE5C492A00200015F04AFEC2
:104050005A493200200015F045FE59492A00200037
:1040600015F040FE57493200200015F03BFE56493E
:104070002A00200015F036FE544A5549200015F05C
:1040800031FE544B54499A461A00200015F02AFE7E
:10409000524B534999461A00200015F023FE514E09
:1040A00051493200200015F01DFE504D50492A00A4
:1040B000200015F017FE4F495246200015F012FE61
:1040C0004D494A46200015F00DFE4C4932002000B3
:1040D00015F008FE4A492A00200015F003FE494960
:1040E0004246200015F0FEFD47494246200015F0EB
:1040F000F9FD46493A00200015F0F4FD44493A0024
:10410000200015F0EFFD434F43493A00200015F021
:10411000E9FD424E42493200200015F0E3FD414DD9
:1041200041492A00200015F0DDFD40493A002000F9
:1041300015F0D8FD3E493200200015F0D3FD3D4971
:104140002A00200015F0CEFDE0BCBA46B146A846D4
:10415000F0BD3949394C200026F0DEFD024920002F
:1041600026F0EEFD2FE7C046944E0220C25A0220F0
:1041700070C103106CC7031074C103107CC103101D
:1041800080C103108CC1031090C103109CC10310A7
:10419000A0C10310A8C10310ACC10310B4C1031027
:1041A000BCC10310C4C10310C8C10310D0C10310A7
:1041B000D4C10310DCC10310E0C10310E4C103103B
:1041C000F8C103100CC203101CC2031028C2031054
:1041D0002CC2031038C203103CC2031044C20310A7
:1041E00048C2031050C2031054C203105CC2031033
:1041F00060C2031068C2031070C2031078C20310BB
:1042000080C2031088C20310E0C00310F4C0031082
:104210008CC2031090C2031094C20310A0C20310FA
:10422000A4C20310B0C20310B4C20310C0C2031072
:10423000C8C20310D0C2031038C1031054050120B6
:1042400010B582B0874B1B78002B00D0FAE00A2211
:10425000694650202FF084F88349844C6A46200038
:1042600015F040FD0A22694651202FF079F8804967
:104270006A46200015F036FD0A22694652202FF0CA
:104280006FF87C496A46200015F02CFD0A22694629
:1042900053202FF065F878496A46200015F022FD7A
:1042A0000A22694646202FF05BF874496A462000CE
:1042B00015F018FD0A22694647202FF051F8704981
:1042C0006A46200015F00EFD0A22694648202FF0AC
:1042D00047F86C496A46200015F004FD0A22694639
:1042E00049202FF03DF868496A46200015F0FAFC95
:1042F0000A2269464A202FF033F864496A462000B2
:1043000015F0F0FC0A2269464B202FF029F860498D
:104310006A46200015F0E6FC0A2269464C202FF080
:104320001FF85C496A46200015F0DCFC0A22694649
:104330004D202FF015F858496A46200015F0D2FCA0
:104340000A2269464E202FF00BF854496A46200095
:1043500015F0C8FC0A2269464F202FF001F8504999
:104360006A46200015F0BEFC0A22694654202EF051
:10437000F7FF4C496A46200015F0B4FC0A22694652
:1043800055202EF0EDFF48496A46200015F0AAFCA2
:104390000A22694656202EF0E3FF44496A4620006F
:1043A00015F0A0FC0A22694657202EF0D9FF40499B
:1043B0006A46200015F096FC0A22694658202EF025
:1043C000CFFF3C496A46200015F08CFC0A22694662
:1043D00059202EF0C5FF38496A46200015F082FCAE
:1043E0000A2269465A202EF0BBFF34496A46200053
:1043F00015F078FC0A2269465B202EF0B1FF3049A7
:104400006A46200015F06EFC0A2269465C202EF0F8
:10441000A7FF2C496A46200015F064FC0A22694671
:104420005D202EF09DFF28496A46200015F05AFCB9
:104430000C4B1B78002B0AD10A4B1B78002B0BD19D
:1044400002B010BD2149224826F066FCFFE607496C
:104450001F4826F075FCEFE71E491D4826F05CFC5E
:10446000EEE7C046C25A0220D8C20310944E022082
:10447000DCC20310E0C20310E4C2031080E20310A8
:1044800078E20310E8C20310ECC20310F0C203107C
:10449000F4C20310F8C20310FCC2031000C30310DF
:1044A00004C30310ECC00310E4C0031008C30310DE
:1044B0000CC3031010C3031014C3031018C303105C
:1044C0001CC3031020C3031024C3031038C10310FE
:1044D0005405012030C80310F0B5A1B0A44814F071
:1044E00087FA451EA34B00221A60A34B1A60A34B08
:1044F0001B78002B24D1A24B1A681E929A88694619
:104500007C2009180A809B796A467E215218137014
:104510009C4B01240294002601969B4A00921BAA00
:10452000733910A814F066FB02960194974B009320
:104530001EAB1A00072105A814F05CFB002434E030
:104540009349944826F0E8FBD5E79349914F38000A
:1045500026F0B0FB914A884B19684B015B1A9B000F
:1045600099580A22380026F04EFC3BE08C49894FCE
:10457000380026F09FFB894B7F4A11684A01521A86
:1045800092009B1859680A22380026F03CFC43E050
:104590007A4B1B78002B64D1784B1B78002B67D1AA
:1045A000764B1B78002B68D10134AC4272DC70482A
:1045B000012301930023009305AB320010A915F0ED
:1045C000C7F90600431C65D06B4B1B685901C91A1B
:1045D0008900724BC91810A814F073FA674B1B7846
:1045E000002BB2D16248012301930023009305AB55
:1045F000320010A915F0ACF906005F4B1B68590199
:10460000C91A8900654BC918043110A814F059FA69
:104610005A4B1B78002BA9D1731C3BD0554A136809
:1046200001331360544A136801331360534B1B78F2
:10463000002BADD05B49574F380026F03BFB0A22D8
:104640003100380026F0DFFB5749380026F032FBF6
:10465000474814F0CDF901000A22380026F0FBFB90
:1046600096E7454B19684B480A2226F0C8FB93E7AA
:104670004E49484826F01EFB92E74D4B3E4A1168D2
:104680004A00521892009B18596842480A2226F0A4
:10469000BAFB89E7384B00221A60384B1B78002B95
:1046A00046D1364B1B78002B44D1344B1B78002B62
:1046B00045D127F0A7F83F4B1A68801A18603E4B87
:1046C0001B78002B42D13C4B1B78002B43D13A4B3B
:1046D0001B78002B46D121B0F0BD38492D4C20006D
:1046E00026F0E8FA2D4D244E326853019B1A9B00A8
:1046F00059590A22200026F082FB2C49200026F07E
:10470000D9FA326853019B1A9B00ED1869680A2296
:10471000200026F074FB2A49200026F0CBFA3368EB
:10472000013333600137134B1B68BB42D5DCB8E75C
:104730000027F8E72349174826F0BCFAB5E70D4BE8
:10474000196814480A2226F05EFBB2E71E49114898
:1047500026F0B0FAB7E7174B19680E480A2226F080
:104760005CFBB4E719490B4826F0D6FAB3E7C0461C
:10477000944E0220787A0120747A0120C25A0220D5
:10478000D8C3031048EC031048C3031054080410A6
:1047900028C303105405012050C30310D4880120FE
:1047A0005CC3031068C3031078C30310A0D80310C0
:1047B000806E01204C540220C35A0220B8EA031034
:1047C0009CC30310A0C30310B4C30310BCC30310E5
:1047D000F8B5CE46474680B5404B1B78002B47D1F5
:1047E0003E4B1B78002B48D13C4B1B78002B49D10A
:1047F0003A4B1B78002B4AD139493A4C0022200011
:1048000015F0EAF8050038490022200015F0E4F818
:10481000060036490022200015F0DEF86B1C3BD064
:104820000127731C3AD001239946431C38D1012F2C
:1048300002D14B46012B40D001232D4929485B4230
:10484000002214F05DFE2A4814F010F9234B1B7867
:10485000002B39D1214B1B78002B3AD1FFF7A6FB57
:10486000FFF7EEFCFFF738FEC0BCB946B046F8BD16
:104870002049214826F050FAB2E71A491E4826F08E
:104880005FFAB1E71D491C4826F046FAB0E71C491B
:10489000194826F041FAAFE72F00C2E7B146C4E756
:1048A000441C104B9846180014F0A2F80300220094
:1048B0004146404614F024FEB9E76A1C0C490948F9
:1048C000330014F01DFEBEE709490B4826F038FA04
:1048D000C0E70C49084826F01FFABFE7C25A022079
:1048E00020C40310007B012024C4031028C403103B
:1048F000944E0220E0C3031054050120F4C30310BA
:104900001CC403102CC4031010B582B00400086846
:104910000090002301934A684B6001920B6023686A
:1049200000932060606862600190002801D0FFF76A
:1049300003FA200002B010BD10B582B00400086870
:104940000090002301934A684B6001920B6023683A
:1049500000932060606862600190002801D0FFF73A
:10496000EBF9200002B010BD70B504000D004B68DB
:1049700043608B688360CB68C36010311030FFF7F1
:10498000C3FFAB69A36129001C3120001C30FFF775
:10499000D3FF6B6A6362200070BD000030B5AFB01A
:1049A00004000D00844B1B78002BFBD1834B0122AC
:1049B0001A70834825F07BFA002805D1052C2AD8E7
:1049C000A400804B1B599F467D4825F00FFBF5E75F
:1049D0007D490AA826F035FC0A2229000DA826F0F8
:1049E000C6FC0DA90AA826F016FD784926F022FD7E
:1049F0000200774B7749684625F0F1FA704869461E
:104A0000FFF7B2FF6846FFF7D1F90DA826F0C3FB08
:104A10000AA826F0C0FB6A4825F049FA002800D110
:104A2000BBE06D4B1B78002B00D0BFE001202FB006
:104A300030BD654910A826F004FC0A22290013A8FD
:104A400026F095FC13A910A826F0E5FC5F4926F096
:104A5000F1FC0200614B5F49684625F0C0FA5848F6
:104A60006946FFF781FF6846FFF7A0F913A826F013
:104A700092FB10A826F08FFBCDE7534916A826F02D
:104A8000E0FB0A22290019A826F071FC19A916A832
:104A900026F0C1FC4D4926F0CDFC0200504B4D499B
:104AA000684625F09CFA46486946FFF75DFF684670
:104AB000FFF77CF919A826F06EFB16A826F06BFB11
:104AC000A9E741491CA826F0BCFB0A2229001FA81F
:104AD00026F04DFC1FA91CA826F09DFC3B4926F0A2
:104AE000A9FC02003F4B3B49684625F078FA344860
:104AF0006946FFF739FF6846FFF758F91FA826F007
:104B00004AFB1CA826F047FB85E72F4922A826F080
:104B100098FB0A22290025A826F029FC25A922A80D
:104B200026F079FC294926F085FC02002E4B294904
:104B3000684625F054FA22486946FFF715FF684693
:104B4000FFF734F925A826F026FB22A826F023FB40
:104B500061E71D4928A826F074FB0A2229002BA82A
:104B600026F005FC2BA928A826F055FC174926F0AD
:104B700061FC02001D4B1749684625F030FA1048C9
:104B80006946FFF7F1FE6846FFF710F92BA826F0FB
:104B900002FB28A826F0FFFA3DE71549154826F044
:104BA000BBF8064B00221A70002040E7124911485A
:104BB00026F0B2F801203AE7C15A0220C05A02207A
:104BC000887A0120B0C4031030C4031040C403101D
:104BD00048C4031044040120C25A02204CC40310EC
:104BE00060DB031050C4031054C4031058C40310F6
:104BF0005CC40310540501207CC4031070B501008F
:104C0000431C15D1002510E0002229000020FFF7E9
:104C1000C5FE0F490F4C200026F04CF8200025F06F
:104C2000E5F90D4B00221A700135072DECDD70BD42
:104C300000220020FFF7B2FE0549064C200026F0B6
:104C400039F8200025F0D2F9034B00221A70EEE764
:104C5000D0C40310887A0120C05A022010B5002960
:104C60000DD1002201000020FFF798FE0649074CF5
:104C7000200026F01FF8200025F0B8F910BD0448E8
:104C800013F026FEFAE7C046D4C40310887A012048
:104C9000007B0120F0B5DE4657464E464546E0B55E
:104CA000F7B081468B4617001C00049326F0AAFD3E
:104CB0008046142200212FA82BF0F8F9002C1CD1DB
:104CC000002239000320FFF769FED44825F0EFF8F1
:104CD000002819D0D24B1B78002B21D1CF4825F0CA
:104CE000D2F8012821D9CD4C00220021200025F046
:104CF0009EF80821200026F001FA26F083FD4346A5
:104D0000C01A2F90002422E0C54B1B78002B02D143
:104D100001277F4266E2C349C34825F0FDFFF7E75C
:104D2000C249C14825F0F8FFD8E7BC4825F05EF934
:104D3000BF4B00221A7001277F4253E2BD49600039
:104D400000198000BC4BC01826F0F0FA0134772C13
:104D5000F4DDBA4B00241C60B94D29002CA826F0C4
:104D600070FA012302930194B64B00932B0021AA01
:104D7000292116A813F03EFF002600239A4600259D
:104D800043460593B8463700B3E0AF4BAF48012226
:104D9000019200220092524616A914F075FD824637
:104DA00016A813F04DFE01002CA826F0BFFA5346BA
:104DB000013300D1C4E02CA826F0E9FC9D493AA8B3
:104DC00026F03FFA9E493DA826F03BFA3DAA3AA9B3
:104DD0002CA826F02DFC3DA826F0DDF93AA826F0F7
:104DE000DAF92E9B022B00D8AEE092492CA826F0CF
:104DF0002EFB002800D0E2E02CA9200026F0EAFAE1
:104E0000934940A826F01DFA8D4E310043A826F0A4
:104E100018FA43AA40A9200026F00AFC43A826F06D
:104E2000BAF940A826F0B7F98A4946A826F009FA47
:104E3000310049A826F005FA49AA46A9200026F023
:104E4000F7FB49A826F0A7F946A826F0A4F982495D
:104E50004CA826F0F6F931004FA826F0F2F94FAA37
:104E60004CA9200026F0E4FB4FA826F094F94CA8AA
:104E700026F091F9794952A826F0E3F9310055A8B6
:104E800026F0DFF955AA52A9200026F0D1FB55A83B
:104E900026F081F952A826F07EF96B4958A826F031
:104EA000D0F931005BA826F0CCF95BAA58A9200004
:104EB00026F0BEFB5BA826F06EF958A826F06BF929
:104EC00067495EA826F0BDF9664961A826F0B9F9E0
:104ED00061AA5EA9200026F0ABFB61A826F05BF971
:104EE0005EA826F058F96049200026F07AFA0135CC
:104EF0000137772F20DC202134A826F028FA6C0017
:104F00006419A4004C4BE41834A9200026F006FADA
:104F100034A826F040F9049B002B00D035E73F4928
:104F20002C2237A826F01CF937A92CA826F0EEF978
:104F300037A826F030F93EE74746059B984606E03D
:104F40004746059B984602E04746059B984626F053
:104F500059FC4346C01A30900A220CA948462EF04C
:104F6000FFF9344C210009A826F06BF9210006A8AE
:104F700026F067F90CA909A826F033FA210009A840
:104F800026F02FFA5B4601331DD126F03BFC434649
:104F9000C01A3190049B002B23D1204C200025F017
:104FA00025F8002239000020FFF7F8FC2A492000EC
:104FB00025F080FE00260027A946BA4675E0474640
:104FC000059B9846C3E70A220CA958462EF0C8F95B
:104FD0000CA906A826F005FA164906A826F001FA3B
:104FE000D3E71A4C200013F073FC2049200015F081
:104FF0006FFADFE77400A419A4000F4BE41809A9A5
:10500000200026F0A5FA013054D01949200026F0DE
:105010008DF901239C46E24446E0C046887A01208F
:10502000C25A0220DCC40310540501207CC40310C2
:10503000C05A022034C103106C480220844E022062
:1050400048EC031010C50310E8C80310007B0120D2
:1050500090F3031078C4031020C4031024C4031079
:10506000A0D803101CC5031020C50310C8C403102A
:1050700024C50310624964A826F0E3F8614967A8D3
:1050800026F0DFF867AA64A9200026F0D1FA67A805
:1050900026F081F864A826F07EF8049B002B22D12C
:1050A0005948210025F0FEFD0136B1457DDD5B4606
:1050B00001339FD07400A419A400544BE41809A92B
:1050C000200026F045FA0130D4D006A9200026F0B1
:1050D0003FFA0130CED04E49200026F027F90123B7
:1050E0009C46E244E0E7002303E00CAA2021D154CF
:1050F0000133262BF9DD002328220CA9200026F0FD
:10510000F9F9444F39006AA826F09BF83D4D290073
:105110006DA826F096F86DAA6AA9200026F088FAF4
:105120006DA826F038F86AA826F035F8344B0593B8
:10513000190070A826F085F8290073A826F081F8D8
:1051400073AA70AB1900200026F072FA73A826F03B
:1051500022F870A826F01FF83900200026F041F947
:105160002D4C0CAB1900200015F0B2F92A0005995E
:10517000200014F0B7FD294F2A003900200014F058
:10518000B1FD27492A00200014F0ACFD25492A0072
:10519000200014F0A7FD24492A00200014F0A2FDED
:1051A0003900200015F042FA7EE75746049B002B99
:1051B00020D11B49144C200025F07CFD200024F058
:1051C00015FF1A4B00221A7026F01CFB4346C01A2A
:1051D000329006A825F0DFFF09A825F0DCFF2CA8F7
:1051E00025F0D9FF380077B0F0BCBB46B246A946DF
:1051F000A046F0BD0A49084815F06AF9E1E7C04643
:1052000034C1031048EC0310887A01206C48022056
:1052100034C50310E8C80310007B0120C8C4031084
:10522000CCC4031020C4031024C40310C05A0220AD
:10523000F0B5DE4657464E464546E0B5D7B0049039
:105240008B4605929846002B01D000242EE00022C8
:1052500005990320FFF7A2FBC84824F028FE002888
:1052600008D0C74B1B78002B12D1C4480F2125F062
:1052700045FFEAE7C349C44825F04EFD00220599E1
:105280000020FFF78BFBC149BC4825F013FDECE77C
:10529000BF49BD4825F040FDE7E7BE496000001961
:1052A0008000BD4BC01826F041F80134772CF4DDA6
:1052B000BA4C210029A825F0C4FF01230293002342
:1052C0000193B74B0093230021AA1F2116A813F0C6
:1052D00091FCB44813F0CAFB002399469A46002774
:1052E0009FE0B14BAF48012201920022009252464A
:1052F00016A914F0C9FA824616A813F0A1FB010002
:1053000029A826F013F829A826F041FAA14932A8C5
:1053100025F097FFA14935A825F093FF35AA32A9BA
:1053200029A826F085F935A825F035FF32A825F003
:1053300032FF2B9B022B00D897E0964929A826F034
:1053400086F8002800D090E029A9200026F042F835
:10535000964938A825F075FF904D29003BA825F007
:1053600070FF3BAA38A9200026F062F93BA825F07F
:1053700012FF38A825F00FFF8D493EA825F061FFE8
:10538000290041A825F05DFF41AA3EA9200026F092
:105390004FF941A825F0FFFE3EA825F0FCFE854907
:1053A00044A825F04EFF290047A825F04AFF47AA48
:1053B00044A9200026F03CF947A825F0ECFE44A8BB
:1053C00025F0E9FE7C494AA825F03BFF29004DA8BD
:1053D00025F037FF4DAA4AA9200026F029F94DA84B
:1053E00025F0D9FE4AA825F0D6FE6F4E310050A810
:1053F00025F027FF290053A825F023FF53AA50A921
:10540000200026F015F953A825F0C5FE50A825F078
:10541000C2FE3100200025F0E4FF013701239C4645
:10542000E1444B46772B20DC20212CA825F08FFF70
:105430007C00E419A400584BE4182CA9200025F0A6
:105440006DFF2CA825F0A7FE4346002B00D048E7AF
:105450004A492C222FA825F083FE2FA929A825F040
:1054600055FF2FA825F097FE4DE70A220CA90498B6
:105470002DF076FF494C210009A825F0E2FE21001D
:1054800006A825F0DEFE0CA909A825F0AAFF4B49C5
:1054900009A825F0A6FF0A220CA958462DF060FFA6
:1054A0000CA906A825F09DFF3F4906A825F099FF05
:1054B00006A909A825F08EFF0B9A013200230CA93A
:1054C00009A826F017F84346002B38D10022059989
:1054D0000120FFF763FA3A49284825F0EBFB0BE07F
:1054E00043465900414489002B4BC918234825F0F5
:1054F000D9FB01239C46E0444745F1DC1F4C09A938
:10550000200025F0CFFB2F49200025F0D3FB0022FF
:105510000021200024F08BFC200024F067FD06A869
:1055200025F039FE09A825F036FE29A825F033FE1E
:1055300057B0F0BCBB46B246A946A046F0BD0B9A98
:10554000184C0CA9200014F0F5FD144D11492A0047
:10555000200014F0C7FB17492A00200014F0C2FBFA
:1055600015492A00200014F0BDFB1549200015F054
:105570005DF81449200014F0ABFFD0E7887A0120D1
:10558000C25A022044C503105405012074C50310FB
:105590007CC4031034C103106C48022048EC031093
:1055A00010C50310007B0120E8C8031090F303101E
:1055B00078C4031020C4031024C40310A0D803101F
:1055C000C8C40310CCC4031030B587B005000C006C
:1055D00026F018F92A4B18602A4B00221A70002C6A
:1055E00006D0FFF7F5F8284B00221A7007B030BD3F
:1055F00029000220FFF7D2F9244824F058FC0028A3
:105600001ED1234B1B78002B15D10022290000202E
:10561000FFF7C4F91F491D4825F04CFB1E4D28001B
:1056200013F056F9194C2100280014F0D7FE200081
:1056300024F0DCFCD5E71949194825F06DFBE4E7B7
:10564000134B1B78002BE9D01649684625F0F9FD6D
:105650000A22290003A825F08AFE03A9684625F03E
:10566000DAFE114925F0E6FE01000D4B180025F089
:1056700049FB03A825F08FFD684625F08CFDCDE79A
:105680004C540220840E0020C05A0220887A012047
:10569000C25A022074C50310007B01207CC5031090
:1056A0005405012094C50310ACC5031010B58AB091
:1056B000184B1B78002BFBD1174B01221A70174B8C
:1056C000174A1849684624F039FC174C69462000EF
:1056D000FFF74AF96846FEF769FB200024F0E7FB74
:1056E000002801D0002408E01049114825F014FBDF
:1056F000F8E70D4825F0E6FA01340E4B195D002954
:10570000F7D1094824F072FC034B00221A700AB04A
:1057100010BDC046C15A0220C05A022048C403101E
:10572000D0C5031044040120246D0120E0C50310FE
:1057300054050120880E002030B591B005000C1EE4
:105740003CD1204B1B78002BFBD11F4B01221A7040
:105750001E490AA825F075FD0A2229000DA825F08A
:1057600006FE0DA90AA825F056FE194925F062FE8D
:105770000200184B1849684624F031FC1748694666
:10578000FFF7F2F86846FEF711FB0DA825F003FDC0
:105790000AA825F000FD03E0104824F005FB0134C1
:1057A0000E4824F0E6FA0028F6D10C4824F01EFC3E
:1057B000054B00221A70200011B030BD084813F0CC
:1057C00017F9F9E7C15A0220C05A022030C4031069
:1057D00040C4031060DB031044040120887A0120D8
:1057E000007B0120F0B591B004000D00002A42D1E9
:1057F000E74B1B78002BFBD1E64B01221A70E649E0
:105800000AA825F01EFD0A2221000DA825F0AFFDF3
:105810000DA90AA825F0FFFDE04925F00BFE0200C6
:10582000DF4BE049684624F0DAFBDF4C6946200094
:10583000FFF79AF86846FEF7B9FA0DA825F0ABFC19
:105840000AA825F0A8FC200024F031FB002803D191
:10585000D04B00221A701EE0D44E300013F038F8FE
:10586000D14C2100300014F0B9FD200024F0BEFB23
:10587000C84B00221A70CE4B1B78002B0DD0CD499F
:10588000CA48002214F0A8F80400431C00D0ADE27E
:10589000002D00D1BDE211B0F0BDC74AC749C34CCD
:1058A000200014F01FFAC64AC649200014F01AFA64
:1058B000C54AC649200014F015FAC54EC549320044
:1058C000200014F00FFAC44FC4493A00200014F02D
:1058D00009FAC34AC349200014F004FAC24AC34972
:1058E000200014F0FFF9C24AC249200014F0FAF96E
:1058F000C14AC249200014F0F5F9C14AC14920004B
:1059000014F0F0F9C04AC149200014F0EBF9C04A84
:10591000C049200014F0E6F9BF4AC049200014F045
:10592000E1F9BF4ABF49200014F0DCF9BE4ABF4983
:10593000200014F0D7F9BE4ABE49200014F0D2F975
:10594000BD4ABE49200014F0CDF9BD4ABD49200032
:1059500014F0C8F9BC4ABD49200014F0C3F9BC4A90
:10596000BC49200014F0BEF9BB4ABC49200014F029
:10597000B9F9BB4ABB49200014F0B4F9BA4ABB4993
:10598000200014F0AFF9BA4ABA49200014F0AAF97D
:10599000B94ABA49200014F0A5F9B94AB94920001A
:1059A00014F0A0F9B84AB949200014F09BF9B84A9C
:1059B000B849200014F096F9B74AB849200014F00D
:1059C00091F9B74AB749200014F08CF9B64AB749A3
:1059D000200014F087F9B64AB649200014F082F985
:1059E000B54AB649200014F07DF9B54AB549200002
:1059F00014F078F9B44AB549200014F073F9B44AA8
:105A0000B449200014F06EF9B34AB449200014F0F0
:105A100069F9B34AB349200014F064F9B24AB349B2
:105A2000200014F05FF9B24AB249200014F05AF98C
:105A3000B14AB249200014F055F9B14AB1492000E9
:105A400014F050F9B04AB149200014F04BF9B04AB3
:105A5000B049200014F046F9AF4AB049200014F0D4
:105A600041F9AF4AAF49200014F03CF9AE4AAF49C2
:105A7000200014F037F9AE4AAE49200014F032F994
:105A8000AD493A00200014F02DF9AC493200200055
:105A900014F028F9AA4AAB49200014F023F9AA4AC5
:105AA000AA49200014F01EF9A94AAA49200014F0BE
:105AB00019F9A94AA949200014F014F9A84AA949DA
:105AC000200014F00FF9A84AA849200014F00AF9A0
:105AD000A74AA849200014F005F9A74AA7492000C1
:105AE00014F000F9A64AA749200014F0FBF8A64AD2
:105AF000A649200014F0F6F8A54AA649200014F0A3
:105B0000F1F8A54AA549200014F0ECF8A44AA549EB
:105B1000200014F0E7F8A44AA449200014F0E2F8A9
:105B2000A34AA449200014F0DDF8A34AA3492000A9
:105B300014F0D8F8A24AA349200014F0D3F8A24ADE
:105B4000A249200014F0CEF8A14AA249200014F086
:105B5000C9F8A1490022200013F03EFF411C20009B
:105B600013F038FA0A2800D189E69C4A9A490F4C6A
:105B7000200014F0B7F89A4E9A493200200014F031
:105B8000B1F899493200200014F0ACF877E6C0462D
:105B9000C15A0220C05A022030C4031040C403106E
:105BA00060DB031044040120887A0120007B01207F
:105BB000C25A022024C403106CC7031070C1031022
:105BC000FCC5031008C603100CC6031018C603104A
:105BD000E0C003107CC103108CC203108CC1031001
:105BE000B4C103109CC10310BCC10310A8C10310B1
:105BF000E0C10310D0C10310DCC10310C4C1031005
:105C000068C2031038C2031070C2031044C20310EC
:105C100078C2031050C2031080C203105CC203108C
:105C2000C0C2031090C20310C8C20310A0C2031068
:105C3000D0C20310B0C203101CC6031024C6031048
:105C400028C6031030C6031034C603103CC6031028
:105C500040C6031048C6031080E203104CC6031070
:105C600078E2031050C60310E8C2031054C60310B4
:105C7000ECC2031058C60310F0C203105CC6031038
:105C8000F4C2031060C60310F8C2031064C6031008
:105C9000FCC2031068C6031000C303106CC60310D7
:105CA00004C3031070C60310D8C2031074C60310D7
:105CB000DCC2031078C60310E0C203107CC60310D8
:105CC000E4C2031080C60310ECC0031084C60310A6
:105CD000E4C0031088C6031008C303108CC6031069
:105CE0000CC3031090C6031010C3031094C6031016
:105CF00014C3031098C6031018C303109CC60310E6
:105D00001CC30310A0C6031020C30310A4C60310B5
:105D100024C30310A8C60310ACC60310B4C60310F6
:105D2000B8C60310C0C60310C4C60310CCC6031007
:105D3000D0C60310D8C60310DCC60310E0C603109B
:105D4000E4C60310941F0410F4C6031004C7031024
:105D500008C7031014C7031018C7031020C7031087
:105D600024C703102CC7031030C7031044C7031007
:105D700048C703105CC7031060C7031070C7031047
:105D800074C7031084C7031088C7031090C703109B
:105D900094C703109CC70310A0C70310A8C7031023
:105DA000ACC70310B4C70310B8C70310C0C70310B3
:105DB000C4C70310CCC70310D0C70310D8C7031043
:105DC000DCC70310E4C70310E8C70310F4C70310CF
:105DD000F8C7031004C80310E8C8031008C803106C
:105DE0000CC80310C8C4031020C40310411C0B4886
:105DF00013F0F0F80A2806D1A11C012207485242EC
:105E000013F00EFA44E5064A0649044813F06AFF07
:105E1000F2E70249044824F093FF3CE5007B0120AF
:105E200010C8031024C403105405012010B5024902
:105E30000120FDF7CDFF10BDFFFF000070B5154B31
:105E4000196800220020FEF7A9FD134D1349144CD8
:105E50002A00200013F046FF12492A00200013F008
:105E600041FF11492A00200013F03CFF0F49200098
:105E700014F0DCFB0E49200014F02AFB0D4D290024
:105E8000200012F0D3FD280024F0B0F80A4B0022C5
:105E90001A7070BD786E012048EC031034C10310F5
:105EA000007B012020C4031024C40310C8C40310C5
:105EB000CCC40310887A0120C05A022070B50E00AD
:105EC000002201000220FEF769FD0E4D280012F0AD
:105ED000FFFC0D4C2100280014F080FA200024F073
:105EE00085F8002231000020FEF758FD210028002F
:105EF00012F09CFD200024F079F8044B00221A7067
:105F000070BDC046007B0120887A0120C05A022063
:105F1000F0B5DE4657464E464546E0B599B025F009
:105F200071FC040000259C4824F0B4FC00280ED12C
:105F300025F068FC001BC8235B009842F3D1002DBC
:105F4000F1D19649944824F0E7FE0135EBE7944CF3
:105F5000200012F0BDFC9049200014F03FFA914C53
:105F600023681093227910AB1A71032200213D207F
:105F700002AB9C4660442AF099F80EABA2680E92E0
:105F8000A2899A800022DA800DAB874A1188198095
:105F900092789A70854B1B78002BFBD1844B0122A1
:105FA0001A70844B844A854903A823F0C7FF8448AC
:105FB00003A9FEF7D9FC03A8FDF7F8FE784C2000F2
:105FC00012F054FD7F49200013F0EAF87E490022C8
:105FD000200013F001FD013010D0794C70482100F1
:105FE00012F024FD00220021200023F020FF0023D6
:105FF0009A4698469B469946002450E07349664C61
:10600000200024F089FE7249200024F085FE684BB0
:1060100000221A7019B0F0BCBB46B246A946A04691
:10602000F0BD6C282DD16F2A2BD1742929D1202DB8
:1060300027D14346002B24D1AC36019B1E40302390
:106040005B429B46B344313398461AE07D2A22D006
:1060500001345B4823F08DFE00281DD0584823F002
:10606000A3FE0190C7B210AB5E781E70987858708E
:10607000DA789A701979D9705D791D715F71532E34
:10608000CFD06629E2D1202DE0D17B2FDED10123B4
:106090009C46E144DAE7013401239C46E24453463E
:1060A000072B05DC46480022210023F0C0FED0E784
:1060B0004F465F447B1E98465F46002455E03B4BAD
:1060C0001B78002BFBD13A4B01221A70414912A8D0
:1060D00025F0B7F80A22390015A825F048F915A9C6
:1060E00012A825F098F93C4925F0A4F902003B4B91
:1060F000324903A823F073FF394803A9FEF734FCA3
:1061000003A8FDF753FE15A825F045F812A825F0C1
:1061100042F82FE0202A15D17B2913D1012511E067
:106120000134274823F025FE002815D0244823F009
:106130003BFEC1B210AB587818709A785A709970BB
:106140006628E7D07D2A07D0012DE9D1BB45E7DCE1
:10615000234823F0F3FDE3E7BB4512DD380001F0EF
:10616000AFF8134B00221A700137474500DD51E7A5
:10617000BB45A4DD12480022210023F058FE002573
:10618000CFE7174D00220021280023F050FE280001
:1061900023F02CFFE2E7C0465405012014C8031089
:1061A000007B012010C90310C8C80310C15A022087
:1061B000C05A02204CC4031034C803104404012008
:1061C000B07A012024C4031020C4031048C803106F
:1061D00084C8031030C4031040C4031048C4031023
:1061E000887A012070B5040000220020FEF7D6FB5B
:1061F0003C4B1B78002B0FD1002C20D0012C48D019
:1062000039493A4C200024F055FD200023F0EEFEE1
:10621000374B00221A7070BD3649374D280024F0E4
:1062200049FD0A222100280024F0EDFDE4E7324870
:1062300024F054FB662809D10123002B0FD02E48EF
:1062400024F028FB0028F2D10123F6E70023F4E72D
:106250007B2901D07D2918D10A2025F0CAFA2648C9
:1062600024F018FB0028C9DD234824F037FBC1B215
:106270006629F1D02029EBD8092906D30A00093A6A
:10628000D2B21E4BD340DB07E6D4184823F056FDAC
:10629000E2E71B49154824F00DFD1A4824F078F96F
